{
  "_format": "hh-sol-artifact-1",
  "contractName": "Matching4Factory",
  "sourceName": "contracts/Matching4Factory.sol",
  "abi": [
    {
      "anonymous": false,
      "inputs": [
        {
          "indexed": false,
          "internalType": "address",
          "name": "senderAddress",
          "type": "address"
        },
        {
          "indexed": false,
          "internalType": "address",
          "name": "eventAddress",
          "type": "address"
        }
      ],
      "name": "MatchingEventCreated",
      "type": "event"
    },
    {
      "inputs": [],
      "name": "createMatching",
      "outputs": [
        {
          "internalType": "bool",
          "name": "success",
          "type": "bool"
        }
      ],
      "stateMutability": "nonpayable",
      "type": "function"
    }
  ],
  "bytecode": "0x608060405234801561001057600080fd5b506134f3806100206000396000f3fe608060405234801561001057600080fd5b506004361061002b5760003560e01c8063fedacda614610030575b600080fd5b61003861004e565b6040516100459190610111565b60405180910390f35b60008060405161005d906100bd565b604051809103906000f080158015610079573d6000803e3d6000fd5b5090507fc217d43fa97bcb3d879915252783207cec04af5edd44f96086d01a42b2e6ac4433826040516100ad9291906100e8565b60405180910390a1600191505090565b6133538061016b83390190565b6100d38161012c565b82525050565b6100e28161013e565b82525050565b60006040820190506100fd60008301856100ca565b61010a60208301846100ca565b9392505050565b600060208201905061012660008301846100d9565b92915050565b60006101378261014a565b9050919050565b60008115159050919050565b600073ffffffffffffffffffffffffffffffffffffffff8216905091905056fe608060405234801561001057600080fd5b50613333806100206000396000f3fe608060405234801561001057600080fd5b50600436106100935760003560e01c8063c82febf511610066578063c82febf514610134578063d826f88f14610164578063dab3f5ae1461016e578063e472177e1461018a578063f70eae9d146101ba57610093565b80631ba4747e146100985780632de40ce3146100c8578063334bb313146100e657806361bc221a14610116575b600080fd5b6100b260048036038101906100ad9190612cdc565b6101ea565b6040516100bf9190612eee565b60405180910390f35b6100d0610220565b6040516100dd9190612f09565b60405180910390f35b61010060048036038101906100fb9190612cdc565b610233565b60405161010d9190612fe4565b60405180910390f35b61011e61024e565b60405161012b9190612fe4565b60405180910390f35b61014e60048036038101906101499190612c77565b610254565b60405161015b9190612f09565b60405180910390f35b61016c610708565b005b61018860048036038101906101839190612d05565b610867565b005b6101a4600480360381019061019f9190612c77565b6109e3565b6040516101b19190612f09565b60405180910390f35b6101d460048036038101906101cf9190612cdc565b610bd9565b6040516101e19190612fe4565b60405180910390f35b601181600881106101fa57600080fd5b016000915054906101000a900473ffffffffffffffffffffffffffffffffffffffff1681565b601960009054906101000a900460ff1681565b6001816008811061024357600080fd5b016000915090505481565b60005481565b600061025e612982565b6040518060400160405280876000600281106102a3577f4e487b7100000000000000000000000000000000000000000000000000000000600052603260045260246000fd5b60200201518152602001876001600281106102e7577f4e487b7100000000000000000000000000000000000000000000000000000000600052603260045260246000fd5b602002015181525081600001819052506040518060400160405280604051806040016040528088600060028110610347577f4e487b7100000000000000000000000000000000000000000000000000000000600052603260045260246000fd5b6020020151600060028110610385577f4e487b7100000000000000000000000000000000000000000000000000000000600052603260045260246000fd5b60200201518152602001886000600281106103c9577f4e487b7100000000000000000000000000000000000000000000000000000000600052603260045260246000fd5b6020020151600160028110610407577f4e487b7100000000000000000000000000000000000000000000000000000000600052603260045260246000fd5b60200201518152508152602001604051806040016040528088600160028110610459577f4e487b7100000000000000000000000000000000000000000000000000000000600052603260045260246000fd5b6020020151600060028110610497577f4e487b7100000000000000000000000000000000000000000000000000000000600052603260045260246000fd5b60200201518152602001886001600281106104db577f4e487b7100000000000000000000000000000000000000000000000000000000600052603260045260246000fd5b6020020151600160028110610519577f4e487b7100000000000000000000000000000000000000000000000000000000600052603260045260246000fd5b60200201518152508152508160200181905250604051806040016040528085600060028110610571577f4e487b7100000000000000000000000000000000000000000000000000000000600052603260045260246000fd5b60200201518152602001856001600281106105b5577f4e487b7100000000000000000000000000000000000000000000000000000000600052603260045260246000fd5b602002015181525081604001819052506000601067ffffffffffffffff811115610608577f4e487b7100000000000000000000000000000000000000000000000000000000600052604160045260246000fd5b6040519080825280602002602001820160405280156106365781602001602082028036833780820191505090505b50905060005b60108110156106db5784816010811061067e577f4e487b7100000000000000000000000000000000000000000000000000000000600052603260045260246000fd5b60200201518282815181106106bc577f4e487b7100000000000000000000000000000000000000000000000000000000600052603260045260246000fd5b60200260200101818152505080806106d3906131df565b91505061063c565b5060006106e88284610bf4565b14156106f957600192505050610700565b6000925050505b949350505050565b60005b600460026107199190613109565b8110156108305760006001826008811061075c577f4e487b7100000000000000000000000000000000000000000000000000000000600052603260045260246000fd5b018190555060006009826008811061079d577f4e487b7100000000000000000000000000000000000000000000000000000000600052603260045260246000fd5b01819055506000601182600881106107de577f4e487b7100000000000000000000000000000000000000000000000000000000600052603260045260246000fd5b0160006101000a81548173ffffffffffffffffffffffffffffffffffffffff021916908373ffffffffffffffffffffffffffffffffffffffff1602179055508080610828906131df565b91505061070b565b506000601960006101000a81548160ff021916908315150217905550600160008082825461085e91906130b3565b92505081905550565b600073ffffffffffffffffffffffffffffffffffffffff16601183600881106108b9577f4e487b7100000000000000000000000000000000000000000000000000000000600052603260045260246000fd5b0160009054906101000a900473ffffffffffffffffffffffffffffffffffffffff1673ffffffffffffffffffffffffffffffffffffffff1614610925577f4e487b7100000000000000000000000000000000000000000000000000000000600052600160045260246000fd5b3360118360088110610960577f4e487b7100000000000000000000000000000000000000000000000000000000600052603260045260246000fd5b0160006101000a81548173ffffffffffffffffffffffffffffffffffffffff021916908373ffffffffffffffffffffffffffffffffffffffff16021790555080600983600881106109da577f4e487b7100000000000000000000000000000000000000000000000000000000600052603260045260246000fd5b01819055505050565b600080600090505b600460026109f99190613109565b811015610ab457828160046002610a109190613109565b610a1a91906130b3565b60108110610a51577f4e487b7100000000000000000000000000000000000000000000000000000000600052603260045260246000fd5b602002015160098260088110610a90577f4e487b7100000000000000000000000000000000000000000000000000000000600052603260045260246000fd5b015414610aa1576000915050610bd1565b8080610aac906131df565b9150506109eb565b50610ac185858585610254565b15610bcc5760005b60046002610ad79190613109565b811015610b6e57828160108110610b17577f4e487b7100000000000000000000000000000000000000000000000000000000600052603260045260246000fd5b602002015160018260088110610b56577f4e487b7100000000000000000000000000000000000000000000000000000000600052603260045260246000fd5b01819055508080610b66906131df565b915050610ac9565b506001601960006101000a81548160ff0219169083151502179055507fa18caf81bead264fa1872fa13294e57db41fcbee753dce1d88d33ef5f595a29d600054604051610bbb9190612fe4565b60405180910390a160019050610bd1565b600090505b949350505050565b60098160088110610be957600080fd5b016000915090505481565b6000807f30644e72e131a029b85045b68181585d2833e84879b9709143e1f593f000000190506000610c24610e7f565b905080608001515160018651610c3a91906130b3565b14610c7a576040517f08c379a0000000000000000000000000000000000000000000000000000000008152600401610c7190612f24565b60405180910390fd5b60006040518060400160405280600081526020016000815250905060005b8651811015610ddb5783878281518110610cdb577f4e487b7100000000000000000000000000000000000000000000000000000000600052603260045260246000fd5b602002602001015110610d23576040517f08c379a0000000000000000000000000000000000000000000000000000000008152600401610d1a90612f64565b60405180910390fd5b610dc682610dc18560800151600185610d3c91906130b3565b81518110610d73577f4e487b7100000000000000000000000000000000000000000000000000000000600052603260045260246000fd5b60200260200101518a8581518110610db4577f4e487b7100000000000000000000000000000000000000000000000000000000600052603260045260246000fd5b6020026020010151611c37565b611d86565b91508080610dd3906131df565b915050610c98565b50610e2b818360800151600081518110610e1e577f4e487b7100000000000000000000000000000000000000000000000000000000600052603260045260246000fd5b6020026020010151611d86565b9050610e61610e3d8660000151611f21565b8660200151846000015185602001518587604001518b604001518960600151611fc6565b610e715760019350505050610e79565b600093505050505b92915050565b610e876129b5565b60405180604001604052807f2d4d9aa7e302d9df41749d5507949d05dbea33fbb16c643b22f599a2be6df2e281526020017f14bedd503c37ceb061d8ec60209fe345ce89830a19230301f076caff004d19268152508160000181905250604051806040016040528060405180604001604052807f0967032fcbf776d1afc985f88877f182d38480a653f2decaa9794cbc3bf3060c81526020017f0e187847ad4c798374d0d6732bf501847dd68bc0e071241e0213bc7fc13db7ab815250815260200160405180604001604052807f304cfbd1e08a704a99f5e847d93f8c3caafddec46b7a0d379da69a4d112346a781526020017f1739c1b1a457a8c7313123d24d2f9192f896b7c63eea05a9d57f06547ad0cec88152508152508160200181905250604051806040016040528060405180604001604052807f198e9393920d483a7260bfb731fb5d25f1aa493335a9e71297e485b7aef312c281526020017f1800deef121f1e76426a00665e5c4479674322d4f75edadd46debd5cd992f6ed815250815260200160405180604001604052807f090689d0585ff075ec9e99ad690c3395bc4b313370b38ef355acdadcd122975b81526020017f12c85ea5db8c6deb4aab71808dcb408fe3d1e7690c43d37b4ce6cc0166fa7daa8152508152508160400181905250604051806040016040528060405180604001604052807f1cd56d57ff8004b0abc04a72e5f2daffceac7db281d11a0f10ae7f9b1b09cc4081526020017f30144448bb0b6ddc35694ee3073dc96ff9fa3166e5932429a0f3c8a1086286cb815250815260200160405180604001604052807f1a043f4ab48d349f13dc464491a2942bf56d9ac0c1bf1dce2daf97df1f80d0d581526020017f1c4b35f7ce5bac5a05ea809cf7d4fe9be8e3c6acf9342a962fb31ea88c23e5bb8152508152508160600181905250601167ffffffffffffffff811115611174577f4e487b7100000000000000000000000000000000000000000000000000000000600052604160045260246000fd5b6040519080825280602002602001820160405280156111ad57816020015b61119a6129fc565b8152602001906001900390816111925790505b50816080018190525060405180604001604052807f097696407169bbcae2843a7faecc909e755f69458ebb01caa65a606cedbaca7081526020017f2b41cbc9b9c7f98a9ce832c5402d75b674eab0502c9ac3792a2d7ef05a6faaf98152508160800151600081518110611249577f4e487b7100000000000000000000000000000000000000000000000000000000600052603260045260246000fd5b602002602001018190525060405180604001604052807f2a43e2d96438bff4ba615f7933276e9109fd53ef106e2d44c1a4f99e1f43c8f181526020017f11831bc98709b14b3132ddb8a6de09905ed949a5a1faf288f5bb051a18bccd4c81525081608001516001815181106112e7577f4e487b7100000000000000000000000000000000000000000000000000000000600052603260045260246000fd5b602002602001018190525060405180604001604052807f25ec142d6a925c6e16ad985212f45eaedd78a3f7d5043eea24c13666d31eb85181526020017f2bdbdec1946f115e3ed4b7af52793609bd3ac960fea4721e1218405d7f4b59bb8152508160800151600281518110611385577f4e487b7100000000000000000000000000000000000000000000000000000000600052603260045260246000fd5b602002602001018190525060405180604001604052807f2c60c2ea33b60ba8be42df018d352444bf120734c9a1c58bb8822e35907b4c8381526020017f24245b86d0e62517780c33facde2f9196c0aab47f426dca8521dd617f145d0c18152508160800151600381518110611423577f4e487b7100000000000000000000000000000000000000000000000000000000600052603260045260246000fd5b602002602001018190525060405180604001604052807f0877adbe168f5af3938f175add3579a04d1e5a902cfcd5cdc2fb4a6c3fc3520b81526020017f1fb628bc2f417f42445513ce8b0be88b7b77751ac86bcf60257efd83ce74275181525081608001516004815181106114c1577f4e487b7100000000000000000000000000000000000000000000000000000000600052603260045260246000fd5b602002602001018190525060405180604001604052807f165d8d2e499ea0cdb594e8de43b76a996ed29ed2864cd34110f9d1f2c8467aef81526020017f2b3daf213452a6bb44671e4c9b9f9ae8021e190a2cbf63a972b10ac3269e7940815250816080015160058151811061155f577f4e487b7100000000000000000000000000000000000000000000000000000000600052603260045260246000fd5b602002602001018190525060405180604001604052807f07db5a638e7d07d85433485aa0c85c66c733184027b9a0b8798595a854e6add781526020017f1d8392ce7971f87677a5ac2c04060396caae7252aae332926df5dd1656ada40581525081608001516006815181106115fd577f4e487b7100000000000000000000000000000000000000000000000000000000600052603260045260246000fd5b602002602001018190525060405180604001604052807f14aa802c8c90c47b86a5c6ac265b40726842df4a824047762505492b8d6e81aa81526020017f1e03e938bcbe39212fb46d12dc6c38e70857e24d49f4cee3324265d371c5b2aa815250816080015160078151811061169b577f4e487b7100000000000000000000000000000000000000000000000000000000600052603260045260246000fd5b602002602001018190525060405180604001604052807f0f5edc9e0d125350039d0285d6b6b583bed70b66c92cc7c82676ca990cf1304081526020017f014010cf410840da0ca7fc0a62a3deb054ea8d84beb757b77a435d35348cd5218152508160800151600881518110611739577f4e487b7100000000000000000000000000000000000000000000000000000000600052603260045260246000fd5b602002602001018190525060405180604001604052807f26bc7caaf84fffddd81f504aa7061ab1c0f6fa95236b7a1ab15082bb1f77070f81526020017f01ecc5d86dada1fb44f5a418e2d9c0b5af1e417453d878c476d5044ae9cae43981525081608001516009815181106117d7577f4e487b7100000000000000000000000000000000000000000000000000000000600052603260045260246000fd5b602002602001018190525060405180604001604052807f10eb57649304d525202315f880f078efd7797130ce8d08d8d0dc7e447510fcae81526020017f1be595761c8e2f715af4f8b83d9b914f8728b426777da8d4a14ae51ff81f09b58152508160800151600a81518110611875577f4e487b7100000000000000000000000000000000000000000000000000000000600052603260045260246000fd5b602002602001018190525060405180604001604052807f2bccfad37020668a37b20144fa4ed8c5d666fcbde1bdb4d496b5c3633a3fbe5481526020017f0186248abca53c990f380f625685bd49230d90775149c21bfe2a8e7f70e369868152508160800151600b81518110611913577f4e487b7100000000000000000000000000000000000000000000000000000000600052603260045260246000fd5b602002602001018190525060405180604001604052807f30016a0607fc57313569d5979dff07bd3787ab31f2181b63b074888219be60a981526020017f0535f84618fed300b1ca31393467df584ddcc2829ca5e66f4ab10a41abbd6c678152508160800151600c815181106119b1577f4e487b7100000000000000000000000000000000000000000000000000000000600052603260045260246000fd5b602002602001018190525060405180604001604052807f155b7a1c99e03a337b4632f9b06be290114114e63aa78bb932801f6f806d021f81526020017f109673ed8b4c770cc475e84e9191625e9cc1342bba81f7727850102c835f77a88152508160800151600d81518110611a4f577f4e487b7100000000000000000000000000000000000000000000000000000000600052603260045260246000fd5b602002602001018190525060405180604001604052807f27a2c62625859a7f00b5b1ef9ee74e0b34b80ff914dca5a4eaeb80cb2820014d81526020017f0f9c61d48e366d7fee537af179762409a73798bb01f552e713860d987348bc6e8152508160800151600e81518110611aed577f4e487b7100000000000000000000000000000000000000000000000000000000600052603260045260246000fd5b602002602001018190525060405180604001604052807f120f552197f5647138af58da054a87e7bfc3b849a78cf73b44fe06596982d0e781526020017f12bf369e33bb3e92e743725adb217a408722b5b1bbceca5d8e31b1d57c46b3248152508160800151600f81518110611b8b577f4e487b7100000000000000000000000000000000000000000000000000000000600052603260045260246000fd5b602002602001018190525060405180604001604052807f2913e4598573f60dd879c0d59649a1e60d93c49ad7e4762a5a7c90ba8338dbb781526020017f10fc332a2f70ed7b6a7f583f6ec5107365f017aac17982f7237851011ecd2bb78152508160800151601081518110611c29577f4e487b7100000000000000000000000000000000000000000000000000000000600052603260045260246000fd5b602002602001018190525090565b611c3f6129fc565b611c47612a16565b836000015181600060038110611c86577f4e487b7100000000000000000000000000000000000000000000000000000000600052603260045260246000fd5b602002018181525050836020015181600160038110611cce577f4e487b7100000000000000000000000000000000000000000000000000000000600052603260045260246000fd5b6020020181815250508281600260038110611d12577f4e487b7100000000000000000000000000000000000000000000000000000000600052603260045260246000fd5b602002018181525050600060608360808460076107d05a03fa90508060008114611d3b57611d3d565bfe5b5080611d7e576040517f08c379a0000000000000000000000000000000000000000000000000000000008152600401611d7590612f44565b60405180910390fd5b505092915050565b611d8e6129fc565b611d96612a38565b836000015181600060048110611dd5577f4e487b7100000000000000000000000000000000000000000000000000000000600052603260045260246000fd5b602002018181525050836020015181600160048110611e1d577f4e487b7100000000000000000000000000000000000000000000000000000000600052603260045260246000fd5b602002018181525050826000015181600260048110611e65577f4e487b7100000000000000000000000000000000000000000000000000000000600052603260045260246000fd5b602002018181525050826020015181600360048110611ead577f4e487b7100000000000000000000000000000000000000000000000000000000600052603260045260246000fd5b602002018181525050600060608360c08460066107d05a03fa90508060008114611ed657611ed8565bfe5b5080611f19576040517f08c379a0000000000000000000000000000000000000000000000000000000008152600401611f1090612fa4565b60405180910390fd5b505092915050565b611f296129fc565b60007f30644e72e131a029b85045b68181585d97816a916871ca8d3c208c16d87cfd47905060008360000151148015611f66575060008360200151145b15611f8a576040518060400160405280600081526020016000815250915050611fc1565b604051806040016040528084600001518152602001828560200151611faf9190613228565b83611fba9190613163565b8152509150505b919050565b600080600467ffffffffffffffff81111561200a577f4e487b7100000000000000000000000000000000000000000000000000000000600052604160045260246000fd5b60405190808252806020026020018201604052801561204357816020015b6120306129fc565b8152602001906001900390816120285790505b5090506000600467ffffffffffffffff811115612089577f4e487b7100000000000000000000000000000000000000000000000000000000600052604160045260246000fd5b6040519080825280602002602001820160405280156120c257816020015b6120af612a5a565b8152602001906001900390816120a75790505b5090508a82600081518110612100577f4e487b7100000000000000000000000000000000000000000000000000000000600052603260045260246000fd5b60200260200101819052508882600181518110612146577f4e487b7100000000000000000000000000000000000000000000000000000000600052603260045260246000fd5b6020026020010181905250868260028151811061218c577f4e487b7100000000000000000000000000000000000000000000000000000000600052603260045260246000fd5b602002602001018190525084826003815181106121d2577f4e487b7100000000000000000000000000000000000000000000000000000000600052603260045260246000fd5b60200260200101819052508981600081518110612218577f4e487b7100000000000000000000000000000000000000000000000000000000600052603260045260246000fd5b6020026020010181905250878160018151811061225e577f4e487b7100000000000000000000000000000000000000000000000000000000600052603260045260246000fd5b602002602001018190525085816002815181106122a4577f4e487b7100000000000000000000000000000000000000000000000000000000600052603260045260246000fd5b602002602001018190525083816003815181106122ea577f4e487b7100000000000000000000000000000000000000000000000000000000600052603260045260246000fd5b60200260200101819052506122ff828261230f565b9250505098975050505050505050565b60008151835114612355576040517f08c379a000000000000000000000000000000000000000000000000000000000815260040161234c90612f84565b60405180910390fd5b600083519050600060068261236a9190613109565b905060008167ffffffffffffffff8111156123ae577f4e487b7100000000000000000000000000000000000000000000000000000000600052604160045260246000fd5b6040519080825280602002602001820160405280156123dc5781602001602082028036833780820191505090505b50905060005b838110156128c157868181518110612423577f4e487b7100000000000000000000000000000000000000000000000000000000600052603260045260246000fd5b60200260200101516000015182600060068461243f9190613109565b61244991906130b3565b81518110612480577f4e487b7100000000000000000000000000000000000000000000000000000000600052603260045260246000fd5b6020026020010181815250508681815181106124c5577f4e487b7100000000000000000000000000000000000000000000000000000000600052603260045260246000fd5b6020026020010151602001518260016006846124e19190613109565b6124eb91906130b3565b81518110612522577f4e487b7100000000000000000000000000000000000000000000000000000000600052603260045260246000fd5b602002602001018181525050858181518110612567577f4e487b7100000000000000000000000000000000000000000000000000000000600052603260045260246000fd5b6020026020010151600001516000600281106125ac577f4e487b7100000000000000000000000000000000000000000000000000000000600052603260045260246000fd5b60200201518260026006846125c19190613109565b6125cb91906130b3565b81518110612602577f4e487b7100000000000000000000000000000000000000000000000000000000600052603260045260246000fd5b602002602001018181525050858181518110612647577f4e487b7100000000000000000000000000000000000000000000000000000000600052603260045260246000fd5b60200260200101516000015160016002811061268c577f4e487b7100000000000000000000000000000000000000000000000000000000600052603260045260246000fd5b60200201518260036006846126a19190613109565b6126ab91906130b3565b815181106126e2577f4e487b7100000000000000000000000000000000000000000000000000000000600052603260045260246000fd5b602002602001018181525050858181518110612727577f4e487b7100000000000000000000000000000000000000000000000000000000600052603260045260246000fd5b60200260200101516020015160006002811061276c577f4e487b7100000000000000000000000000000000000000000000000000000000600052603260045260246000fd5b60200201518260046006846127819190613109565b61278b91906130b3565b815181106127c2577f4e487b7100000000000000000000000000000000000000000000000000000000600052603260045260246000fd5b602002602001018181525050858181518110612807577f4e487b7100000000000000000000000000000000000000000000000000000000600052603260045260246000fd5b60200260200101516020015160016002811061284c577f4e487b7100000000000000000000000000000000000000000000000000000000600052603260045260246000fd5b60200201518260056006846128619190613109565b61286b91906130b3565b815181106128a2577f4e487b7100000000000000000000000000000000000000000000000000000000600052603260045260246000fd5b60200260200101818152505080806128b9906131df565b9150506123e2565b506128ca612a80565b6000602082602086026020860160086107d05a03fa905080600081146128ef576128f1565bfe5b5080612932576040517f08c379a000000000000000000000000000000000000000000000000000000000815260040161292990612fc4565b60405180910390fd5b60008260006001811061296e577f4e487b7100000000000000000000000000000000000000000000000000000000600052603260045260246000fd5b602002015114159550505050505092915050565b60405180606001604052806129956129fc565b81526020016129a2612a5a565b81526020016129af6129fc565b81525090565b6040518060a001604052806129c86129fc565b81526020016129d5612a5a565b81526020016129e2612a5a565b81526020016129ef612a5a565b8152602001606081525090565b604051806040016040528060008152602001600081525090565b6040518060600160405280600390602082028036833780820191505090505090565b6040518060800160405280600490602082028036833780820191505090505090565b6040518060400160405280612a6d612aa2565b8152602001612a7a612aa2565b81525090565b6040518060200160405280600190602082028036833780820191505090505090565b6040518060400160405280600290602082028036833780820191505090505090565b6000612ad7612ad284613030565b612fff565b90508082856040860282011115612aed57600080fd5b60005b85811015612b1d5781612b038882612c3b565b845260208401935060408301925050600181019050612af0565b5050509392505050565b6000612b3a612b3584613056565b612fff565b90508082856020860282011115612b5057600080fd5b60005b85811015612b805781612b668882612c62565b845260208401935060208301925050600181019050612b53565b5050509392505050565b6000612b9d612b988461307c565b612fff565b90508082856020860282011115612bb357600080fd5b60005b85811015612be35781612bc98882612c62565b845260208401935060208301925050600181019050612bb6565b5050509392505050565b600082601f830112612bfe57600080fd5b6002612c0b848285612ac4565b91505092915050565b600082601f830112612c2557600080fd5b6010612c32848285612b27565b91505092915050565b600082601f830112612c4c57600080fd5b6002612c59848285612b8a565b91505092915050565b600081359050612c71816132e6565b92915050565b6000806000806103008587031215612c8e57600080fd5b6000612c9c87828801612c3b565b9450506040612cad87828801612bed565b93505060c0612cbe87828801612c3b565b925050610100612cd087828801612c14565b91505092959194509250565b600060208284031215612cee57600080fd5b6000612cfc84828501612c62565b91505092915050565b60008060408385031215612d1857600080fd5b6000612d2685828601612c62565b9250506020612d3785828601612c62565b9150509250929050565b612d4a81613197565b82525050565b612d59816131a9565b82525050565b6000612d6c6012836130a2565b91507f76657269666965722d6261642d696e70757400000000000000000000000000006000830152602082019050919050565b6000612dac6012836130a2565b91507f70616972696e672d6d756c2d6661696c656400000000000000000000000000006000830152602082019050919050565b6000612dec601f836130a2565b91507f76657269666965722d6774652d736e61726b2d7363616c61722d6669656c64006000830152602082019050919050565b6000612e2c6016836130a2565b91507f70616972696e672d6c656e677468732d6661696c6564000000000000000000006000830152602082019050919050565b6000612e6c6012836130a2565b91507f70616972696e672d6164642d6661696c656400000000000000000000000000006000830152602082019050919050565b6000612eac6015836130a2565b91507f70616972696e672d6f70636f64652d6661696c656400000000000000000000006000830152602082019050919050565b612ee8816131d5565b82525050565b6000602082019050612f036000830184612d41565b92915050565b6000602082019050612f1e6000830184612d50565b92915050565b60006020820190508181036000830152612f3d81612d5f565b9050919050565b60006020820190508181036000830152612f5d81612d9f565b9050919050565b60006020820190508181036000830152612f7d81612ddf565b9050919050565b60006020820190508181036000830152612f9d81612e1f565b9050919050565b60006020820190508181036000830152612fbd81612e5f565b9050919050565b60006020820190508181036000830152612fdd81612e9f565b9050919050565b6000602082019050612ff96000830184612edf565b92915050565b6000604051905081810181811067ffffffffffffffff82111715613026576130256132b7565b5b8060405250919050565b600067ffffffffffffffff82111561304b5761304a6132b7565b5b602082029050919050565b600067ffffffffffffffff821115613071576130706132b7565b5b602082029050919050565b600067ffffffffffffffff821115613097576130966132b7565b5b602082029050919050565b600082825260208201905092915050565b60006130be826131d5565b91506130c9836131d5565b9250827fffffffffffffffffffffffffffffffffffffffffffffffffffffffffffffffff038211156130fe576130fd613259565b5b828201905092915050565b6000613114826131d5565b915061311f836131d5565b9250817fffffffffffffffffffffffffffffffffffffffffffffffffffffffffffffffff048311821515161561315857613157613259565b5b828202905092915050565b600061316e826131d5565b9150613179836131d5565b92508282101561318c5761318b613259565b5b828203905092915050565b60006131a2826131b5565b9050919050565b60008115159050919050565b600073ffffffffffffffffffffffffffffffffffffffff82169050919050565b6000819050919050565b60006131ea826131d5565b91507fffffffffffffffffffffffffffffffffffffffffffffffffffffffffffffffff82141561321d5761321c613259565b5b600182019050919050565b6000613233826131d5565b915061323e836131d5565b92508261324e5761324d613288565b5b828206905092915050565b7f4e487b7100000000000000000000000000000000000000000000000000000000600052601160045260246000fd5b7f4e487b7100000000000000000000000000000000000000000000000000000000600052601260045260246000fd5b7f4e487b7100000000000000000000000000000000000000000000000000000000600052604160045260246000fd5b6132ef816131d5565b81146132fa57600080fd5b5056fea2646970667358221220538400adbe539a4e34078f688f6461ba1f4a4f67ad951950554b5605737046d664736f6c63430008000033a2646970667358221220c8b877f7b0f6cd13853490873030f3898d2071d4481e0ddb7b832a836587328a64736f6c63430008000033",
  "linkReferences": {},
  "deployedLinkReferences": {}
}