{
  "_format": "hh-sol-artifact-1",
  "contractName": "Matching3",
  "sourceName": "contracts/Matching3.sol",
  "abi": [
    {
      "anonymous": false,
      "inputs": [
        {
          "indexed": false,
          "internalType": "uint256",
          "name": "counter",
          "type": "uint256"
        }
      ],
      "name": "Register",
      "type": "event"
    },
    {
      "inputs": [
        {
          "internalType": "uint256",
          "name": "uid",
          "type": "uint256"
        },
        {
          "internalType": "uint256",
          "name": "sHash",
          "type": "uint256"
        }
      ],
      "name": "commitScoreHash",
      "outputs": [],
      "stateMutability": "nonpayable",
      "type": "function"
    },
    {
      "inputs": [
        {
          "internalType": "uint256",
          "name": "",
          "type": "uint256"
        }
      ],
      "name": "committer",
      "outputs": [
        {
          "internalType": "address",
          "name": "",
          "type": "address"
        }
      ],
      "stateMutability": "view",
      "type": "function"
    },
    {
      "inputs": [],
      "name": "counter",
      "outputs": [
        {
          "internalType": "uint256",
          "name": "",
          "type": "uint256"
        }
      ],
      "stateMutability": "view",
      "type": "function"
    },
    {
      "inputs": [
        {
          "internalType": "uint256",
          "name": "",
          "type": "uint256"
        }
      ],
      "name": "matchingHash",
      "outputs": [
        {
          "internalType": "uint256",
          "name": "",
          "type": "uint256"
        }
      ],
      "stateMutability": "view",
      "type": "function"
    },
    {
      "inputs": [
        {
          "internalType": "uint256[2]",
          "name": "a",
          "type": "uint256[2]"
        },
        {
          "internalType": "uint256[2][2]",
          "name": "b",
          "type": "uint256[2][2]"
        },
        {
          "internalType": "uint256[2]",
          "name": "c",
          "type": "uint256[2]"
        },
        {
          "internalType": "uint256[12]",
          "name": "input",
          "type": "uint256[12]"
        }
      ],
      "name": "register",
      "outputs": [
        {
          "internalType": "bool",
          "name": "",
          "type": "bool"
        }
      ],
      "stateMutability": "nonpayable",
      "type": "function"
    },
    {
      "inputs": [],
      "name": "registered",
      "outputs": [
        {
          "internalType": "bool",
          "name": "",
          "type": "bool"
        }
      ],
      "stateMutability": "view",
      "type": "function"
    },
    {
      "inputs": [],
      "name": "reset",
      "outputs": [],
      "stateMutability": "nonpayable",
      "type": "function"
    },
    {
      "inputs": [
        {
          "internalType": "uint256",
          "name": "",
          "type": "uint256"
        }
      ],
      "name": "scoreHash",
      "outputs": [
        {
          "internalType": "uint256",
          "name": "",
          "type": "uint256"
        }
      ],
      "stateMutability": "view",
      "type": "function"
    },
    {
      "inputs": [
        {
          "internalType": "uint256[2]",
          "name": "a",
          "type": "uint256[2]"
        },
        {
          "internalType": "uint256[2][2]",
          "name": "b",
          "type": "uint256[2][2]"
        },
        {
          "internalType": "uint256[2]",
          "name": "c",
          "type": "uint256[2]"
        },
        {
          "internalType": "uint256[12]",
          "name": "input",
          "type": "uint256[12]"
        }
      ],
      "name": "verifyProof",
      "outputs": [
        {
          "internalType": "bool",
          "name": "r",
          "type": "bool"
        }
      ],
      "stateMutability": "view",
      "type": "function"
    }
  ],
  "bytecode": "0x608060405234801561001057600080fd5b506130bb806100206000396000f3fe608060405234801561001057600080fd5b50600436106100935760003560e01c806361bc221a1161006657806361bc221a146101465780638cbac0fa14610164578063d826f88f14610194578063dab3f5ae1461019e578063f70eae9d146101ba57610093565b80631ba4747e146100985780632de40ce3146100c8578063334bb313146100e657806348988ea214610116575b600080fd5b6100b260048036038101906100ad9190612a64565b6101ea565b6040516100bf9190612c76565b60405180910390f35b6100d0610220565b6040516100dd9190612c91565b60405180910390f35b61010060048036038101906100fb9190612a64565b610233565b60405161010d9190612d6c565b60405180910390f35b610130600480360381019061012b91906129ff565b61024e565b60405161013d9190612c91565b60405180910390f35b61014e610444565b60405161015b9190612d6c565b60405180910390f35b61017e600480360381019061017991906129ff565b61044a565b60405161018b9190612c91565b60405180910390f35b61019c6108fe565b005b6101b860048036038101906101b39190612a8d565b610a5d565b005b6101d460048036038101906101cf9190612a64565b610bd9565b6040516101e19190612d6c565b60405180910390f35b600d81600681106101fa57600080fd5b016000915054906101000a900473ffffffffffffffffffffffffffffffffffffffff1681565b601360009054906101000a900460ff1681565b6001816006811061024357600080fd5b016000915090505481565b600080600090505b600360026102649190612e91565b81101561031f5782816003600261027b9190612e91565b6102859190612e3b565b600c81106102bc577f4e487b7100000000000000000000000000000000000000000000000000000000600052603260045260246000fd5b6020020151600782600681106102fb577f4e487b7100000000000000000000000000000000000000000000000000000000600052603260045260246000fd5b01541461030c57600091505061043c565b808061031790612f67565b915050610256565b5061032c8585858561044a565b156104375760005b600360026103429190612e91565b8110156103d9578281600c8110610382577f4e487b7100000000000000000000000000000000000000000000000000000000600052603260045260246000fd5b6020020151600182600681106103c1577f4e487b7100000000000000000000000000000000000000000000000000000000600052603260045260246000fd5b018190555080806103d190612f67565b915050610334565b506001601360006101000a81548160ff0219169083151502179055507fa18caf81bead264fa1872fa13294e57db41fcbee753dce1d88d33ef5f595a29d6000546040516104269190612d6c565b60405180910390a16001905061043c565b600090505b949350505050565b60005481565b600061045461270a565b604051806040016040528087600060028110610499577f4e487b7100000000000000000000000000000000000000000000000000000000600052603260045260246000fd5b60200201518152602001876001600281106104dd577f4e487b7100000000000000000000000000000000000000000000000000000000600052603260045260246000fd5b60200201518152508160000181905250604051806040016040528060405180604001604052808860006002811061053d577f4e487b7100000000000000000000000000000000000000000000000000000000600052603260045260246000fd5b602002015160006002811061057b577f4e487b7100000000000000000000000000000000000000000000000000000000600052603260045260246000fd5b60200201518152602001886000600281106105bf577f4e487b7100000000000000000000000000000000000000000000000000000000600052603260045260246000fd5b60200201516001600281106105fd577f4e487b7100000000000000000000000000000000000000000000000000000000600052603260045260246000fd5b6020020151815250815260200160405180604001604052808860016002811061064f577f4e487b7100000000000000000000000000000000000000000000000000000000600052603260045260246000fd5b602002015160006002811061068d577f4e487b7100000000000000000000000000000000000000000000000000000000600052603260045260246000fd5b60200201518152602001886001600281106106d1577f4e487b7100000000000000000000000000000000000000000000000000000000600052603260045260246000fd5b602002015160016002811061070f577f4e487b7100000000000000000000000000000000000000000000000000000000600052603260045260246000fd5b60200201518152508152508160200181905250604051806040016040528085600060028110610767577f4e487b7100000000000000000000000000000000000000000000000000000000600052603260045260246000fd5b60200201518152602001856001600281106107ab577f4e487b7100000000000000000000000000000000000000000000000000000000600052603260045260246000fd5b602002015181525081604001819052506000600c67ffffffffffffffff8111156107fe577f4e487b7100000000000000000000000000000000000000000000000000000000600052604160045260246000fd5b60405190808252806020026020018201604052801561082c5781602001602082028036833780820191505090505b50905060005b600c8110156108d1578481600c8110610874577f4e487b7100000000000000000000000000000000000000000000000000000000600052603260045260246000fd5b60200201518282815181106108b2577f4e487b7100000000000000000000000000000000000000000000000000000000600052603260045260246000fd5b60200260200101818152505080806108c990612f67565b915050610832565b5060006108de8284610bf4565b14156108ef576001925050506108f6565b6000925050505b949350505050565b60005b6003600261090f9190612e91565b811015610a2657600060018260068110610952577f4e487b7100000000000000000000000000000000000000000000000000000000600052603260045260246000fd5b0181905550600060078260068110610993577f4e487b7100000000000000000000000000000000000000000000000000000000600052603260045260246000fd5b01819055506000600d82600681106109d4577f4e487b7100000000000000000000000000000000000000000000000000000000600052603260045260246000fd5b0160006101000a81548173ffffffffffffffffffffffffffffffffffffffff021916908373ffffffffffffffffffffffffffffffffffffffff1602179055508080610a1e90612f67565b915050610901565b506000601360006101000a81548160ff0219169083151502179055506001600080828254610a549190612e3b565b92505081905550565b600073ffffffffffffffffffffffffffffffffffffffff16600d8360068110610aaf577f4e487b7100000000000000000000000000000000000000000000000000000000600052603260045260246000fd5b0160009054906101000a900473ffffffffffffffffffffffffffffffffffffffff1673ffffffffffffffffffffffffffffffffffffffff1614610b1b577f4e487b7100000000000000000000000000000000000000000000000000000000600052600160045260246000fd5b33600d8360068110610b56577f4e487b7100000000000000000000000000000000000000000000000000000000600052603260045260246000fd5b0160006101000a81548173ffffffffffffffffffffffffffffffffffffffff021916908373ffffffffffffffffffffffffffffffffffffffff1602179055508060078360068110610bd0577f4e487b7100000000000000000000000000000000000000000000000000000000600052603260045260246000fd5b01819055505050565b60078160068110610be957600080fd5b016000915090505481565b6000807f30644e72e131a029b85045b68181585d2833e84879b9709143e1f593f000000190506000610c24610e7f565b905080608001515160018651610c3a9190612e3b565b14610c7a576040517f08c379a0000000000000000000000000000000000000000000000000000000008152600401610c7190612cac565b60405180910390fd5b60006040518060400160405280600081526020016000815250905060005b8651811015610ddb5783878281518110610cdb577f4e487b7100000000000000000000000000000000000000000000000000000000600052603260045260246000fd5b602002602001015110610d23576040517f08c379a0000000000000000000000000000000000000000000000000000000008152600401610d1a90612cec565b60405180910390fd5b610dc682610dc18560800151600185610d3c9190612e3b565b81518110610d73577f4e487b7100000000000000000000000000000000000000000000000000000000600052603260045260246000fd5b60200260200101518a8581518110610db4577f4e487b7100000000000000000000000000000000000000000000000000000000600052603260045260246000fd5b60200260200101516119bf565b611b0e565b91508080610dd390612f67565b915050610c98565b50610e2b818360800151600081518110610e1e577f4e487b7100000000000000000000000000000000000000000000000000000000600052603260045260246000fd5b6020026020010151611b0e565b9050610e61610e3d8660000151611ca9565b8660200151846000015185602001518587604001518b604001518960600151611d4e565b610e715760019350505050610e79565b600093505050505b92915050565b610e8761273d565b60405180604001604052807f2d4d9aa7e302d9df41749d5507949d05dbea33fbb16c643b22f599a2be6df2e281526020017f14bedd503c37ceb061d8ec60209fe345ce89830a19230301f076caff004d19268152508160000181905250604051806040016040528060405180604001604052807f0967032fcbf776d1afc985f88877f182d38480a653f2decaa9794cbc3bf3060c81526020017f0e187847ad4c798374d0d6732bf501847dd68bc0e071241e0213bc7fc13db7ab815250815260200160405180604001604052807f304cfbd1e08a704a99f5e847d93f8c3caafddec46b7a0d379da69a4d112346a781526020017f1739c1b1a457a8c7313123d24d2f9192f896b7c63eea05a9d57f06547ad0cec88152508152508160200181905250604051806040016040528060405180604001604052807f198e9393920d483a7260bfb731fb5d25f1aa493335a9e71297e485b7aef312c281526020017f1800deef121f1e76426a00665e5c4479674322d4f75edadd46debd5cd992f6ed815250815260200160405180604001604052807f090689d0585ff075ec9e99ad690c3395bc4b313370b38ef355acdadcd122975b81526020017f12c85ea5db8c6deb4aab71808dcb408fe3d1e7690c43d37b4ce6cc0166fa7daa8152508152508160400181905250604051806040016040528060405180604001604052807f0eca5abd0383dd39c66be327c96484d00619bb3e19e504d22821b17947b3257881526020017f1778665df59c3fb7bb0fe4088da1bd9992183f20175768e745e625b5cbf25396815250815260200160405180604001604052807f24416faea5cb75f1bf55a07fb7f69f3192cc51064aea6466c8430cc484a8000281526020017f0858300103ac2558e902bd57c0da87b48ac540ffef7957a6d013ba4cef8054c18152508152508160600181905250600d67ffffffffffffffff811115611174577f4e487b7100000000000000000000000000000000000000000000000000000000600052604160045260246000fd5b6040519080825280602002602001820160405280156111ad57816020015b61119a612784565b8152602001906001900390816111925790505b50816080018190525060405180604001604052807f300314c298e44a94cecc3e1f891c4860af324020c874015502a3eb317560f82781526020017f2f10a15eccfa13c5ed06a956c3eb79f90f7fd24222b19e496eba926396bedf7a8152508160800151600081518110611249577f4e487b7100000000000000000000000000000000000000000000000000000000600052603260045260246000fd5b602002602001018190525060405180604001604052807f255d32f14b1244fb0a2bd964b009674a754dca919bedce860ad9b317bcf19d8a81526020017f2095ea422f64aa41316b6bd69aabe61ee4138cc31574ffdb8215fbd8c004348b81525081608001516001815181106112e7577f4e487b7100000000000000000000000000000000000000000000000000000000600052603260045260246000fd5b602002602001018190525060405180604001604052807f11a5c3cf2f6583d85616df98a42993160fe72fe7c0dd6c6bc56cd104188db1f081526020017f147938a1e8c6d0c55bbd385152170fd3ef519256049e04ebb94ef18707e2201d8152508160800151600281518110611385577f4e487b7100000000000000000000000000000000000000000000000000000000600052603260045260246000fd5b602002602001018190525060405180604001604052807f18e3652ce1ecbf325cafe24ec4cb7c6203c51cd76a165422ca17c9182d2fd70281526020017f2499d8d740e904da9ad9635841de631e8b25341b1dc5aaecde5e7f22053741e78152508160800151600381518110611423577f4e487b7100000000000000000000000000000000000000000000000000000000600052603260045260246000fd5b602002602001018190525060405180604001604052807f0eb94c046956b8826f7fa8e523c362145fc38c0e5a6a9cc66c91fb915ac93a5181526020017f07dea7532779aed59dffd43ac9f3e487aa0626fa5e59d07c02e21d38d0eef74081525081608001516004815181106114c1577f4e487b7100000000000000000000000000000000000000000000000000000000600052603260045260246000fd5b602002602001018190525060405180604001604052807f2c4780f1e3b58c144f59a2519a1d49f7c88de404aec043df78cb682956cba3cb81526020017f0c98b39437268fc63244078bac5bd3b76bfbda0934295efcfb54ffb246b298c3815250816080015160058151811061155f577f4e487b7100000000000000000000000000000000000000000000000000000000600052603260045260246000fd5b602002602001018190525060405180604001604052807f09803718cdcb63e532ebc9a6a221720401273939239cb59fbca679d57ef3feec81526020017f1771ac97101d5fdd46d09ad3d0f24572a7cd0a78fc11775d18c9826d6058b60881525081608001516006815181106115fd577f4e487b7100000000000000000000000000000000000000000000000000000000600052603260045260246000fd5b602002602001018190525060405180604001604052807f25466dc9c5568272bd3a5c30aa73507963981e4c7ffb101f471d7c8c316ef36481526020017f0fb486edb77645bd906a4e230d6e8ca49c8b6aceb8e173073287a06e316d1f94815250816080015160078151811061169b577f4e487b7100000000000000000000000000000000000000000000000000000000600052603260045260246000fd5b602002602001018190525060405180604001604052807f159525043cbd22399c383d87421884caa84cc0b0a236a9fc940384b3d589752481526020017f0f59489d7fc7ed7655cce3d5043c24604dd08e8c99862bd3930b59bee8efaf5b8152508160800151600881518110611739577f4e487b7100000000000000000000000000000000000000000000000000000000600052603260045260246000fd5b602002602001018190525060405180604001604052807f0f575417dfd540b8491aa4297fd62308fa7d354c007c501128d71ee8d62ee4bd81526020017f08e79773fd5ac92f4b522513a47628ac474a92be26fa7d72a3670e14fd6746e481525081608001516009815181106117d7577f4e487b7100000000000000000000000000000000000000000000000000000000600052603260045260246000fd5b602002602001018190525060405180604001604052807f04ac16f0c53ff335a6b36dfcc77600e00d51d01c577f801bb85c7b0e0b2fb7ee81526020017f0be5588fc3873da3c996c5155f107e04e6317b3441d7191cff8d967bdc42ae7a8152508160800151600a81518110611875577f4e487b7100000000000000000000000000000000000000000000000000000000600052603260045260246000fd5b602002602001018190525060405180604001604052807f1171c35fc8f08c7b219a150227224a2d702c452e6ba31c8c8d3c004abf53375b81526020017f28a7be407614870394d7a1c300aca675615614dc39ca961e974ef8ab036c936a8152508160800151600b81518110611913577f4e487b7100000000000000000000000000000000000000000000000000000000600052603260045260246000fd5b602002602001018190525060405180604001604052807f02eddb5021cb7018d01b4c772896514dc9d68e43f63e533bce506e3d84adbc0481526020017f17c16214918d42b288f6528f6111c1faf8e7487c09d90f0921eaf52667621a308152508160800151600c815181106119b1577f4e487b7100000000000000000000000000000000000000000000000000000000600052603260045260246000fd5b602002602001018190525090565b6119c7612784565b6119cf61279e565b836000015181600060038110611a0e577f4e487b7100000000000000000000000000000000000000000000000000000000600052603260045260246000fd5b602002018181525050836020015181600160038110611a56577f4e487b7100000000000000000000000000000000000000000000000000000000600052603260045260246000fd5b6020020181815250508281600260038110611a9a577f4e487b7100000000000000000000000000000000000000000000000000000000600052603260045260246000fd5b602002018181525050600060608360808460076107d05a03fa90508060008114611ac357611ac5565bfe5b5080611b06576040517f08c379a0000000000000000000000000000000000000000000000000000000008152600401611afd90612ccc565b60405180910390fd5b505092915050565b611b16612784565b611b1e6127c0565b836000015181600060048110611b5d577f4e487b7100000000000000000000000000000000000000000000000000000000600052603260045260246000fd5b602002018181525050836020015181600160048110611ba5577f4e487b7100000000000000000000000000000000000000000000000000000000600052603260045260246000fd5b602002018181525050826000015181600260048110611bed577f4e487b7100000000000000000000000000000000000000000000000000000000600052603260045260246000fd5b602002018181525050826020015181600360048110611c35577f4e487b7100000000000000000000000000000000000000000000000000000000600052603260045260246000fd5b602002018181525050600060608360c08460066107d05a03fa90508060008114611c5e57611c60565bfe5b5080611ca1576040517f08c379a0000000000000000000000000000000000000000000000000000000008152600401611c9890612d2c565b60405180910390fd5b505092915050565b611cb1612784565b60007f30644e72e131a029b85045b68181585d97816a916871ca8d3c208c16d87cfd47905060008360000151148015611cee575060008360200151145b15611d12576040518060400160405280600081526020016000815250915050611d49565b604051806040016040528084600001518152602001828560200151611d379190612fb0565b83611d429190612eeb565b8152509150505b919050565b600080600467ffffffffffffffff811115611d92577f4e487b7100000000000000000000000000000000000000000000000000000000600052604160045260246000fd5b604051908082528060200260200182016040528015611dcb57816020015b611db8612784565b815260200190600190039081611db05790505b5090506000600467ffffffffffffffff811115611e11577f4e487b7100000000000000000000000000000000000000000000000000000000600052604160045260246000fd5b604051908082528060200260200182016040528015611e4a57816020015b611e376127e2565b815260200190600190039081611e2f5790505b5090508a82600081518110611e88577f4e487b7100000000000000000000000000000000000000000000000000000000600052603260045260246000fd5b60200260200101819052508882600181518110611ece577f4e487b7100000000000000000000000000000000000000000000000000000000600052603260045260246000fd5b60200260200101819052508682600281518110611f14577f4e487b7100000000000000000000000000000000000000000000000000000000600052603260045260246000fd5b60200260200101819052508482600381518110611f5a577f4e487b7100000000000000000000000000000000000000000000000000000000600052603260045260246000fd5b60200260200101819052508981600081518110611fa0577f4e487b7100000000000000000000000000000000000000000000000000000000600052603260045260246000fd5b60200260200101819052508781600181518110611fe6577f4e487b7100000000000000000000000000000000000000000000000000000000600052603260045260246000fd5b6020026020010181905250858160028151811061202c577f4e487b7100000000000000000000000000000000000000000000000000000000600052603260045260246000fd5b60200260200101819052508381600381518110612072577f4e487b7100000000000000000000000000000000000000000000000000000000600052603260045260246000fd5b60200260200101819052506120878282612097565b9250505098975050505050505050565b600081518351146120dd576040517f08c379a00000000000000000000000000000000000000000000000000000000081526004016120d490612d0c565b60405180910390fd5b60008351905060006006826120f29190612e91565b905060008167ffffffffffffffff811115612136577f4e487b7100000000000000000000000000000000000000000000000000000000600052604160045260246000fd5b6040519080825280602002602001820160405280156121645781602001602082028036833780820191505090505b50905060005b83811015612649578681815181106121ab577f4e487b7100000000000000000000000000000000000000000000000000000000600052603260045260246000fd5b6020026020010151600001518260006006846121c79190612e91565b6121d19190612e3b565b81518110612208577f4e487b7100000000000000000000000000000000000000000000000000000000600052603260045260246000fd5b60200260200101818152505086818151811061224d577f4e487b7100000000000000000000000000000000000000000000000000000000600052603260045260246000fd5b6020026020010151602001518260016006846122699190612e91565b6122739190612e3b565b815181106122aa577f4e487b7100000000000000000000000000000000000000000000000000000000600052603260045260246000fd5b6020026020010181815250508581815181106122ef577f4e487b7100000000000000000000000000000000000000000000000000000000600052603260045260246000fd5b602002602001015160000151600060028110612334577f4e487b7100000000000000000000000000000000000000000000000000000000600052603260045260246000fd5b60200201518260026006846123499190612e91565b6123539190612e3b565b8151811061238a577f4e487b7100000000000000000000000000000000000000000000000000000000600052603260045260246000fd5b6020026020010181815250508581815181106123cf577f4e487b7100000000000000000000000000000000000000000000000000000000600052603260045260246000fd5b602002602001015160000151600160028110612414577f4e487b7100000000000000000000000000000000000000000000000000000000600052603260045260246000fd5b60200201518260036006846124299190612e91565b6124339190612e3b565b8151811061246a577f4e487b7100000000000000000000000000000000000000000000000000000000600052603260045260246000fd5b6020026020010181815250508581815181106124af577f4e487b7100000000000000000000000000000000000000000000000000000000600052603260045260246000fd5b6020026020010151602001516000600281106124f4577f4e487b7100000000000000000000000000000000000000000000000000000000600052603260045260246000fd5b60200201518260046006846125099190612e91565b6125139190612e3b565b8151811061254a577f4e487b7100000000000000000000000000000000000000000000000000000000600052603260045260246000fd5b60200260200101818152505085818151811061258f577f4e487b7100000000000000000000000000000000000000000000000000000000600052603260045260246000fd5b6020026020010151602001516001600281106125d4577f4e487b7100000000000000000000000000000000000000000000000000000000600052603260045260246000fd5b60200201518260056006846125e99190612e91565b6125f39190612e3b565b8151811061262a577f4e487b7100000000000000000000000000000000000000000000000000000000600052603260045260246000fd5b602002602001018181525050808061264190612f67565b91505061216a565b50612652612808565b6000602082602086026020860160086107d05a03fa9050806000811461267757612679565bfe5b50806126ba576040517f08c379a00000000000000000000000000000000000000000000000000000000081526004016126b190612d4c565b60405180910390fd5b6000826000600181106126f6577f4e487b7100000000000000000000000000000000000000000000000000000000600052603260045260246000fd5b602002015114159550505050505092915050565b604051806060016040528061271d612784565b815260200161272a6127e2565b8152602001612737612784565b81525090565b6040518060a00160405280612750612784565b815260200161275d6127e2565b815260200161276a6127e2565b81526020016127776127e2565b8152602001606081525090565b604051806040016040528060008152602001600081525090565b6040518060600160405280600390602082028036833780820191505090505090565b6040518060800160405280600490602082028036833780820191505090505090565b60405180604001604052806127f561282a565b815260200161280261282a565b81525090565b6040518060200160405280600190602082028036833780820191505090505090565b6040518060400160405280600290602082028036833780820191505090505090565b600061285f61285a84612db8565b612d87565b9050808285604086028201111561287557600080fd5b60005b858110156128a5578161288b88826129c3565b845260208401935060408301925050600181019050612878565b5050509392505050565b60006128c26128bd84612dde565b612d87565b905080828560208602820111156128d857600080fd5b60005b8581101561290857816128ee88826129ea565b8452602084019350602083019250506001810190506128db565b5050509392505050565b600061292561292084612e04565b612d87565b9050808285602086028201111561293b57600080fd5b60005b8581101561296b578161295188826129ea565b84526020840193506020830192505060018101905061293e565b5050509392505050565b600082601f83011261298657600080fd5b600261299384828561284c565b91505092915050565b600082601f8301126129ad57600080fd5b600c6129ba8482856128af565b91505092915050565b600082601f8301126129d457600080fd5b60026129e1848285612912565b91505092915050565b6000813590506129f98161306e565b92915050565b6000806000806102808587031215612a1657600080fd5b6000612a24878288016129c3565b9450506040612a3587828801612975565b93505060c0612a46878288016129c3565b925050610100612a588782880161299c565b91505092959194509250565b600060208284031215612a7657600080fd5b6000612a84848285016129ea565b91505092915050565b60008060408385031215612aa057600080fd5b6000612aae858286016129ea565b9250506020612abf858286016129ea565b9150509250929050565b612ad281612f1f565b82525050565b612ae181612f31565b82525050565b6000612af4601283612e2a565b91507f76657269666965722d6261642d696e70757400000000000000000000000000006000830152602082019050919050565b6000612b34601283612e2a565b91507f70616972696e672d6d756c2d6661696c656400000000000000000000000000006000830152602082019050919050565b6000612b74601f83612e2a565b91507f76657269666965722d6774652d736e61726b2d7363616c61722d6669656c64006000830152602082019050919050565b6000612bb4601683612e2a565b91507f70616972696e672d6c656e677468732d6661696c6564000000000000000000006000830152602082019050919050565b6000612bf4601283612e2a565b91507f70616972696e672d6164642d6661696c656400000000000000000000000000006000830152602082019050919050565b6000612c34601583612e2a565b91507f70616972696e672d6f70636f64652d6661696c656400000000000000000000006000830152602082019050919050565b612c7081612f5d565b82525050565b6000602082019050612c8b6000830184612ac9565b92915050565b6000602082019050612ca66000830184612ad8565b92915050565b60006020820190508181036000830152612cc581612ae7565b9050919050565b60006020820190508181036000830152612ce581612b27565b9050919050565b60006020820190508181036000830152612d0581612b67565b9050919050565b60006020820190508181036000830152612d2581612ba7565b9050919050565b60006020820190508181036000830152612d4581612be7565b9050919050565b60006020820190508181036000830152612d6581612c27565b9050919050565b6000602082019050612d816000830184612c67565b92915050565b6000604051905081810181811067ffffffffffffffff82111715612dae57612dad61303f565b5b8060405250919050565b600067ffffffffffffffff821115612dd357612dd261303f565b5b602082029050919050565b600067ffffffffffffffff821115612df957612df861303f565b5b602082029050919050565b600067ffffffffffffffff821115612e1f57612e1e61303f565b5b602082029050919050565b600082825260208201905092915050565b6000612e4682612f5d565b9150612e5183612f5d565b9250827fffffffffffffffffffffffffffffffffffffffffffffffffffffffffffffffff03821115612e8657612e85612fe1565b5b828201905092915050565b6000612e9c82612f5d565b9150612ea783612f5d565b9250817fffffffffffffffffffffffffffffffffffffffffffffffffffffffffffffffff0483118215151615612ee057612edf612fe1565b5b828202905092915050565b6000612ef682612f5d565b9150612f0183612f5d565b925082821015612f1457612f13612fe1565b5b828203905092915050565b6000612f2a82612f3d565b9050919050565b60008115159050919050565b600073ffffffffffffffffffffffffffffffffffffffff82169050919050565b6000819050919050565b6000612f7282612f5d565b91507fffffffffffffffffffffffffffffffffffffffffffffffffffffffffffffffff821415612fa557612fa4612fe1565b5b600182019050919050565b6000612fbb82612f5d565b9150612fc683612f5d565b925082612fd657612fd5613010565b5b828206905092915050565b7f4e487b7100000000000000000000000000000000000000000000000000000000600052601160045260246000fd5b7f4e487b7100000000000000000000000000000000000000000000000000000000600052601260045260246000fd5b7f4e487b7100000000000000000000000000000000000000000000000000000000600052604160045260246000fd5b61307781612f5d565b811461308257600080fd5b5056fea2646970667358221220bbc75758a37c4a1070673e05ca5abed4402f241eb300008571f174f842165feb64736f6c63430008000033",
  "linkReferences": {},
  "deployedLinkReferences": {}
}