{
  "_format": "hh-sol-artifact-1",
  "contractName": "Matching3Factory",
  "sourceName": "contracts/Matching3Factory.sol",
  "abi": [
    {
      "anonymous": false,
      "inputs": [
        {
          "indexed": false,
          "internalType": "address",
          "name": "senderAddress",
          "type": "address"
        },
        {
          "indexed": false,
          "internalType": "address",
          "name": "eventAddress",
          "type": "address"
        }
      ],
      "name": "MatchingEventCreated",
      "type": "event"
    },
    {
      "inputs": [],
      "name": "createMatching",
      "outputs": [
        {
          "internalType": "bool",
          "name": "success",
          "type": "bool"
        }
      ],
      "stateMutability": "nonpayable",
      "type": "function"
    }
  ],
  "bytecode": "0x608060405234801561001057600080fd5b50613c74806100206000396000f3fe608060405234801561001057600080fd5b506004361061002b5760003560e01c8063fedacda614610030575b600080fd5b61003861004e565b6040516100459190610111565b60405180910390f35b60008060405161005d906100bd565b604051809103906000f080158015610079573d6000803e3d6000fd5b5090507fc217d43fa97bcb3d879915252783207cec04af5edd44f96086d01a42b2e6ac4433826040516100ad9291906100e8565b60405180910390a1600191505090565b613ad48061016b83390190565b6100d38161012c565b82525050565b6100e28161013e565b82525050565b60006040820190506100fd60008301856100ca565b61010a60208301846100ca565b9392505050565b600060208201905061012660008301846100d9565b92915050565b60006101378261014a565b9050919050565b60008115159050919050565b600073ffffffffffffffffffffffffffffffffffffffff8216905091905056fe608060405234801561001057600080fd5b50326000806101000a81548173ffffffffffffffffffffffffffffffffffffffff021916908373ffffffffffffffffffffffffffffffffffffffff160217905550613a74806100606000396000f3fe608060405234801561001057600080fd5b50600436106101165760003560e01c806363ffab31116100a2578063d6a4745d11610071578063d6a4745d1461031b578063d826f88f14610337578063dab3f5ae14610341578063dcf978dd1461035d578063f70eae9d1461038d57610116565b806363ffab311461027f5780638cbac0fa1461029d5780638da5cb5b146102cd578063ce03fdab146102eb57610116565b8063334bb313116100e9578063334bb313146101b557806342ed4dfa146101e557806348988ea2146102015780635760f7e01461023157806361bc221a1461026157610116565b80631371cd1d1461011b5780631ba4747e1461013757806329610129146101675780632de40ce314610197575b600080fd5b610135600480360381019061013091906131cf565b6103bd565b005b610151600480360381019061014c91906131f8565b610449565b60405161015e9190613537565b60405180910390f35b610181600480360381019061017c91906131f8565b61047f565b60405161018e9190613588565b60405180910390f35b61019f6104a2565b6040516101ac9190613552565b60405180910390f35b6101cf60048036038101906101ca91906131f8565b6104b5565b6040516101dc919061367e565b60405180910390f35b6101ff60048036038101906101fa9190613221565b6104d0565b005b61021b6004803603810190610216919061316a565b6106ee565b6040516102289190613552565b60405180910390f35b61024b600480360381019061024691906131f8565b6108e4565b60405161025891906135a3565b60405180910390f35b6102696108ff565b604051610276919061367e565b60405180910390f35b610287610905565b60405161029491906135a3565b60405180910390f35b6102b760048036038101906102b2919061316a565b61090b565b6040516102c49190613552565b60405180910390f35b6102d5610dbf565b6040516102e29190613537565b60405180910390f35b610305600480360381019061030091906131f8565b610de3565b604051610312919061356d565b60405180910390f35b610335600480360381019061033091906132d4565b610e06565b005b61033f610e25565b005b61035b60048036038101906103569190613298565b61116e565b005b610377600480360381019061037291906131f8565b6112ea565b60405161038491906135a3565b60405180910390f35b6103a760048036038101906103a291906131f8565b611305565b6040516103b4919061367e565b60405180910390f35b60008054906101000a900473ffffffffffffffffffffffffffffffffffffffff1673ffffffffffffffffffffffffffffffffffffffff163373ffffffffffffffffffffffffffffffffffffffff161461043f577f4e487b7100000000000000000000000000000000000000000000000000000000600052600160045260246000fd5b8060158190555050565b600e816006811061045957600080fd5b016000915054906101000a900473ffffffffffffffffffffffffffffffffffffffff1681565b6028816006811061048f57600080fd5b016000915054906101000a900460201b81565b601460009054906101000a900460ff1681565b600281600681106104c557600080fd5b016000915090505481565b600e856006811061050a577f4e487b7100000000000000000000000000000000000000000000000000000000600052603260045260246000fd5b0160009054906101000a900473ffffffffffffffffffffffffffffffffffffffff1673ffffffffffffffffffffffffffffffffffffffff163373ffffffffffffffffffffffffffffffffffffffff161461058d577f4e487b7100000000000000000000000000000000000000000000000000000000600052600160045260246000fd5b83601686600681106105c8577f4e487b7100000000000000000000000000000000000000000000000000000000600052603260045260246000fd5b018190555082601c8660068110610608577f4e487b7100000000000000000000000000000000000000000000000000000000600052603260045260246000fd5b0160006101000a81548177ffffffffffffffffffffffffffffffffffffffffffffffff021916908360401c02179055508160228660068110610673577f4e487b7100000000000000000000000000000000000000000000000000000000600052603260045260246000fd5b018190555080602886600681106106b3577f4e487b7100000000000000000000000000000000000000000000000000000000600052603260045260246000fd5b0160006101000a8154817bffffffffffffffffffffffffffffffffffffffffffffffffffffffff021916908360201c02179055505050505050565b600080600090505b6003600261070491906137a3565b8110156107bf5782816003600261071b91906137a3565b610725919061374d565b600c811061075c577f4e487b7100000000000000000000000000000000000000000000000000000000600052603260045260246000fd5b60200201516008826006811061079b577f4e487b7100000000000000000000000000000000000000000000000000000000600052603260045260246000fd5b0154146107ac5760009150506108dc565b80806107b7906138db565b9150506106f6565b506107cc8585858561090b565b156108d75760005b600360026107e291906137a3565b811015610879578281600c8110610822577f4e487b7100000000000000000000000000000000000000000000000000000000600052603260045260246000fd5b602002015160028260068110610861577f4e487b7100000000000000000000000000000000000000000000000000000000600052603260045260246000fd5b01819055508080610871906138db565b9150506107d4565b506001601460006101000a81548160ff0219169083151502179055507fa18caf81bead264fa1872fa13294e57db41fcbee753dce1d88d33ef5f595a29d6001546040516108c6919061367e565b60405180910390a1600190506108dc565b600090505b949350505050565b601681600681106108f457600080fd5b016000915090505481565b60015481565b60155481565b6000610915612e36565b60405180604001604052808760006002811061095a577f4e487b7100000000000000000000000000000000000000000000000000000000600052603260045260246000fd5b602002015181526020018760016002811061099e577f4e487b7100000000000000000000000000000000000000000000000000000000600052603260045260246000fd5b6020020151815250816000018190525060405180604001604052806040518060400160405280886000600281106109fe577f4e487b7100000000000000000000000000000000000000000000000000000000600052603260045260246000fd5b6020020151600060028110610a3c577f4e487b7100000000000000000000000000000000000000000000000000000000600052603260045260246000fd5b6020020151815260200188600060028110610a80577f4e487b7100000000000000000000000000000000000000000000000000000000600052603260045260246000fd5b6020020151600160028110610abe577f4e487b7100000000000000000000000000000000000000000000000000000000600052603260045260246000fd5b60200201518152508152602001604051806040016040528088600160028110610b10577f4e487b7100000000000000000000000000000000000000000000000000000000600052603260045260246000fd5b6020020151600060028110610b4e577f4e487b7100000000000000000000000000000000000000000000000000000000600052603260045260246000fd5b6020020151815260200188600160028110610b92577f4e487b7100000000000000000000000000000000000000000000000000000000600052603260045260246000fd5b6020020151600160028110610bd0577f4e487b7100000000000000000000000000000000000000000000000000000000600052603260045260246000fd5b60200201518152508152508160200181905250604051806040016040528085600060028110610c28577f4e487b7100000000000000000000000000000000000000000000000000000000600052603260045260246000fd5b6020020151815260200185600160028110610c6c577f4e487b7100000000000000000000000000000000000000000000000000000000600052603260045260246000fd5b602002015181525081604001819052506000600c67ffffffffffffffff811115610cbf577f4e487b7100000000000000000000000000000000000000000000000000000000600052604160045260246000fd5b604051908082528060200260200182016040528015610ced5781602001602082028036833780820191505090505b50905060005b600c811015610d92578481600c8110610d35577f4e487b7100000000000000000000000000000000000000000000000000000000600052603260045260246000fd5b6020020151828281518110610d73577f4e487b7100000000000000000000000000000000000000000000000000000000600052603260045260246000fd5b6020026020010181815250508080610d8a906138db565b915050610cf3565b506000610d9f8284611320565b1415610db057600192505050610db7565b6000925050505b949350505050565b60008054906101000a900473ffffffffffffffffffffffffffffffffffffffff1681565b601c8160068110610df357600080fd5b016000915054906101000a900460401b81565b610e10868661116e565b610e1d86858585856104d0565b505050505050565b60008054906101000a900473ffffffffffffffffffffffffffffffffffffffff1673ffffffffffffffffffffffffffffffffffffffff163373ffffffffffffffffffffffffffffffffffffffff1614610ea7577f4e487b7100000000000000000000000000000000000000000000000000000000600052600160045260246000fd5b60005b60036002610eb891906137a3565b81101561113757600060028260068110610efb577f4e487b7100000000000000000000000000000000000000000000000000000000600052603260045260246000fd5b0181905550600060088260068110610f3c577f4e487b7100000000000000000000000000000000000000000000000000000000600052603260045260246000fd5b01819055506000600e8260068110610f7d577f4e487b7100000000000000000000000000000000000000000000000000000000600052603260045260246000fd5b0160006101000a81548173ffffffffffffffffffffffffffffffffffffffff021916908373ffffffffffffffffffffffffffffffffffffffff1602179055506000801b60168260068110610ffa577f4e487b7100000000000000000000000000000000000000000000000000000000600052603260045260246000fd5b0181905550600060401b601c826006811061103e577f4e487b7100000000000000000000000000000000000000000000000000000000600052603260045260246000fd5b0160006101000a81548177ffffffffffffffffffffffffffffffffffffffffffffffff021916908360401c02179055506000801b602282600681106110ac577f4e487b7100000000000000000000000000000000000000000000000000000000600052603260045260246000fd5b0181905550600060201b602882600681106110f0577f4e487b7100000000000000000000000000000000000000000000000000000000600052603260045260246000fd5b0160006101000a8154817bffffffffffffffffffffffffffffffffffffffffffffffffffffffff021916908360201c0217905550808061112f906138db565b915050610eaa565b506000601460006101000a81548160ff0219169083151502179055506001806000828254611165919061374d565b92505081905550565b600073ffffffffffffffffffffffffffffffffffffffff16600e83600681106111c0577f4e487b7100000000000000000000000000000000000000000000000000000000600052603260045260246000fd5b0160009054906101000a900473ffffffffffffffffffffffffffffffffffffffff1673ffffffffffffffffffffffffffffffffffffffff161461122c577f4e487b7100000000000000000000000000000000000000000000000000000000600052600160045260246000fd5b33600e8360068110611267577f4e487b7100000000000000000000000000000000000000000000000000000000600052603260045260246000fd5b0160006101000a81548173ffffffffffffffffffffffffffffffffffffffff021916908373ffffffffffffffffffffffffffffffffffffffff16021790555080600883600681106112e1577f4e487b7100000000000000000000000000000000000000000000000000000000600052603260045260246000fd5b01819055505050565b602281600681106112fa57600080fd5b016000915090505481565b6008816006811061131557600080fd5b016000915090505481565b6000807f30644e72e131a029b85045b68181585d2833e84879b9709143e1f593f0000001905060006113506115ab565b905080608001515160018651611366919061374d565b146113a6576040517f08c379a000000000000000000000000000000000000000000000000000000000815260040161139d906135be565b60405180910390fd5b60006040518060400160405280600081526020016000815250905060005b86518110156115075783878281518110611407577f4e487b7100000000000000000000000000000000000000000000000000000000600052603260045260246000fd5b60200260200101511061144f576040517f08c379a0000000000000000000000000000000000000000000000000000000008152600401611446906135fe565b60405180910390fd5b6114f2826114ed8560800151600185611468919061374d565b8151811061149f577f4e487b7100000000000000000000000000000000000000000000000000000000600052603260045260246000fd5b60200260200101518a85815181106114e0577f4e487b7100000000000000000000000000000000000000000000000000000000600052603260045260246000fd5b60200260200101516120eb565b61223a565b915080806114ff906138db565b9150506113c4565b5061155781836080015160008151811061154a577f4e487b7100000000000000000000000000000000000000000000000000000000600052603260045260246000fd5b602002602001015161223a565b905061158d61156986600001516123d5565b8660200151846000015185602001518587604001518b60400151896060015161247a565b61159d57600193505050506115a5565b600093505050505b92915050565b6115b3612e69565b60405180604001604052807f2d4d9aa7e302d9df41749d5507949d05dbea33fbb16c643b22f599a2be6df2e281526020017f14bedd503c37ceb061d8ec60209fe345ce89830a19230301f076caff004d19268152508160000181905250604051806040016040528060405180604001604052807f0967032fcbf776d1afc985f88877f182d38480a653f2decaa9794cbc3bf3060c81526020017f0e187847ad4c798374d0d6732bf501847dd68bc0e071241e0213bc7fc13db7ab815250815260200160405180604001604052807f304cfbd1e08a704a99f5e847d93f8c3caafddec46b7a0d379da69a4d112346a781526020017f1739c1b1a457a8c7313123d24d2f9192f896b7c63eea05a9d57f06547ad0cec88152508152508160200181905250604051806040016040528060405180604001604052807f198e9393920d483a7260bfb731fb5d25f1aa493335a9e71297e485b7aef312c281526020017f1800deef121f1e76426a00665e5c4479674322d4f75edadd46debd5cd992f6ed815250815260200160405180604001604052807f090689d0585ff075ec9e99ad690c3395bc4b313370b38ef355acdadcd122975b81526020017f12c85ea5db8c6deb4aab71808dcb408fe3d1e7690c43d37b4ce6cc0166fa7daa8152508152508160400181905250604051806040016040528060405180604001604052807f0aedcd4f820fdf0d73978f3238fb712b350dd8d81f8de06fd1b6440d2eaaf09a81526020017f11dcb701723055b045172c18af6c7c03b7b90ed83f458fc1c8d6cb49e6f77bfd815250815260200160405180604001604052807f1c806abb3feeaf3f35bfee4485445a273e6ffd354a77ef388e6690adafd296ce81526020017f0f4afb9098a06d8b42fcbd6a61bca1bb611dabc6e872e4c42d2578f1dd0e66248152508152508160600181905250600d67ffffffffffffffff8111156118a0577f4e487b7100000000000000000000000000000000000000000000000000000000600052604160045260246000fd5b6040519080825280602002602001820160405280156118d957816020015b6118c6612eb0565b8152602001906001900390816118be5790505b50816080018190525060405180604001604052807f300314c298e44a94cecc3e1f891c4860af324020c874015502a3eb317560f82781526020017f2f10a15eccfa13c5ed06a956c3eb79f90f7fd24222b19e496eba926396bedf7a8152508160800151600081518110611975577f4e487b7100000000000000000000000000000000000000000000000000000000600052603260045260246000fd5b602002602001018190525060405180604001604052807f255d32f14b1244fb0a2bd964b009674a754dca919bedce860ad9b317bcf19d8a81526020017f2095ea422f64aa41316b6bd69aabe61ee4138cc31574ffdb8215fbd8c004348b8152508160800151600181518110611a13577f4e487b7100000000000000000000000000000000000000000000000000000000600052603260045260246000fd5b602002602001018190525060405180604001604052807f11a5c3cf2f6583d85616df98a42993160fe72fe7c0dd6c6bc56cd104188db1f081526020017f147938a1e8c6d0c55bbd385152170fd3ef519256049e04ebb94ef18707e2201d8152508160800151600281518110611ab1577f4e487b7100000000000000000000000000000000000000000000000000000000600052603260045260246000fd5b602002602001018190525060405180604001604052807f18e3652ce1ecbf325cafe24ec4cb7c6203c51cd76a165422ca17c9182d2fd70281526020017f2499d8d740e904da9ad9635841de631e8b25341b1dc5aaecde5e7f22053741e78152508160800151600381518110611b4f577f4e487b7100000000000000000000000000000000000000000000000000000000600052603260045260246000fd5b602002602001018190525060405180604001604052807f0eb94c046956b8826f7fa8e523c362145fc38c0e5a6a9cc66c91fb915ac93a5181526020017f07dea7532779aed59dffd43ac9f3e487aa0626fa5e59d07c02e21d38d0eef7408152508160800151600481518110611bed577f4e487b7100000000000000000000000000000000000000000000000000000000600052603260045260246000fd5b602002602001018190525060405180604001604052807f2c4780f1e3b58c144f59a2519a1d49f7c88de404aec043df78cb682956cba3cb81526020017f0c98b39437268fc63244078bac5bd3b76bfbda0934295efcfb54ffb246b298c38152508160800151600581518110611c8b577f4e487b7100000000000000000000000000000000000000000000000000000000600052603260045260246000fd5b602002602001018190525060405180604001604052807f09803718cdcb63e532ebc9a6a221720401273939239cb59fbca679d57ef3feec81526020017f1771ac97101d5fdd46d09ad3d0f24572a7cd0a78fc11775d18c9826d6058b6088152508160800151600681518110611d29577f4e487b7100000000000000000000000000000000000000000000000000000000600052603260045260246000fd5b602002602001018190525060405180604001604052807f25466dc9c5568272bd3a5c30aa73507963981e4c7ffb101f471d7c8c316ef36481526020017f0fb486edb77645bd906a4e230d6e8ca49c8b6aceb8e173073287a06e316d1f948152508160800151600781518110611dc7577f4e487b7100000000000000000000000000000000000000000000000000000000600052603260045260246000fd5b602002602001018190525060405180604001604052807f159525043cbd22399c383d87421884caa84cc0b0a236a9fc940384b3d589752481526020017f0f59489d7fc7ed7655cce3d5043c24604dd08e8c99862bd3930b59bee8efaf5b8152508160800151600881518110611e65577f4e487b7100000000000000000000000000000000000000000000000000000000600052603260045260246000fd5b602002602001018190525060405180604001604052807f0f575417dfd540b8491aa4297fd62308fa7d354c007c501128d71ee8d62ee4bd81526020017f08e79773fd5ac92f4b522513a47628ac474a92be26fa7d72a3670e14fd6746e48152508160800151600981518110611f03577f4e487b7100000000000000000000000000000000000000000000000000000000600052603260045260246000fd5b602002602001018190525060405180604001604052807f04ac16f0c53ff335a6b36dfcc77600e00d51d01c577f801bb85c7b0e0b2fb7ee81526020017f0be5588fc3873da3c996c5155f107e04e6317b3441d7191cff8d967bdc42ae7a8152508160800151600a81518110611fa1577f4e487b7100000000000000000000000000000000000000000000000000000000600052603260045260246000fd5b602002602001018190525060405180604001604052807f1171c35fc8f08c7b219a150227224a2d702c452e6ba31c8c8d3c004abf53375b81526020017f28a7be407614870394d7a1c300aca675615614dc39ca961e974ef8ab036c936a8152508160800151600b8151811061203f577f4e487b7100000000000000000000000000000000000000000000000000000000600052603260045260246000fd5b602002602001018190525060405180604001604052807f02eddb5021cb7018d01b4c772896514dc9d68e43f63e533bce506e3d84adbc0481526020017f17c16214918d42b288f6528f6111c1faf8e7487c09d90f0921eaf52667621a308152508160800151600c815181106120dd577f4e487b7100000000000000000000000000000000000000000000000000000000600052603260045260246000fd5b602002602001018190525090565b6120f3612eb0565b6120fb612eca565b83600001518160006003811061213a577f4e487b7100000000000000000000000000000000000000000000000000000000600052603260045260246000fd5b602002018181525050836020015181600160038110612182577f4e487b7100000000000000000000000000000000000000000000000000000000600052603260045260246000fd5b60200201818152505082816002600381106121c6577f4e487b7100000000000000000000000000000000000000000000000000000000600052603260045260246000fd5b602002018181525050600060608360808460076107d05a03fa905080600081146121ef576121f1565bfe5b5080612232576040517f08c379a0000000000000000000000000000000000000000000000000000000008152600401612229906135de565b60405180910390fd5b505092915050565b612242612eb0565b61224a612eec565b836000015181600060048110612289577f4e487b7100000000000000000000000000000000000000000000000000000000600052603260045260246000fd5b6020020181815250508360200151816001600481106122d1577f4e487b7100000000000000000000000000000000000000000000000000000000600052603260045260246000fd5b602002018181525050826000015181600260048110612319577f4e487b7100000000000000000000000000000000000000000000000000000000600052603260045260246000fd5b602002018181525050826020015181600360048110612361577f4e487b7100000000000000000000000000000000000000000000000000000000600052603260045260246000fd5b602002018181525050600060608360c08460066107d05a03fa9050806000811461238a5761238c565bfe5b50806123cd576040517f08c379a00000000000000000000000000000000000000000000000000000000081526004016123c49061363e565b60405180910390fd5b505092915050565b6123dd612eb0565b60007f30644e72e131a029b85045b68181585d97816a916871ca8d3c208c16d87cfd4790506000836000015114801561241a575060008360200151145b1561243e576040518060400160405280600081526020016000815250915050612475565b6040518060400160405280846000015181526020018285602001516124639190613924565b8361246e91906137fd565b8152509150505b919050565b600080600467ffffffffffffffff8111156124be577f4e487b7100000000000000000000000000000000000000000000000000000000600052604160045260246000fd5b6040519080825280602002602001820160405280156124f757816020015b6124e4612eb0565b8152602001906001900390816124dc5790505b5090506000600467ffffffffffffffff81111561253d577f4e487b7100000000000000000000000000000000000000000000000000000000600052604160045260246000fd5b60405190808252806020026020018201604052801561257657816020015b612563612f0e565b81526020019060019003908161255b5790505b5090508a826000815181106125b4577f4e487b7100000000000000000000000000000000000000000000000000000000600052603260045260246000fd5b602002602001018190525088826001815181106125fa577f4e487b7100000000000000000000000000000000000000000000000000000000600052603260045260246000fd5b60200260200101819052508682600281518110612640577f4e487b7100000000000000000000000000000000000000000000000000000000600052603260045260246000fd5b60200260200101819052508482600381518110612686577f4e487b7100000000000000000000000000000000000000000000000000000000600052603260045260246000fd5b602002602001018190525089816000815181106126cc577f4e487b7100000000000000000000000000000000000000000000000000000000600052603260045260246000fd5b60200260200101819052508781600181518110612712577f4e487b7100000000000000000000000000000000000000000000000000000000600052603260045260246000fd5b60200260200101819052508581600281518110612758577f4e487b7100000000000000000000000000000000000000000000000000000000600052603260045260246000fd5b6020026020010181905250838160038151811061279e577f4e487b7100000000000000000000000000000000000000000000000000000000600052603260045260246000fd5b60200260200101819052506127b382826127c3565b9250505098975050505050505050565b60008151835114612809576040517f08c379a00000000000000000000000000000000000000000000000000000000081526004016128009061361e565b60405180910390fd5b600083519050600060068261281e91906137a3565b905060008167ffffffffffffffff811115612862577f4e487b7100000000000000000000000000000000000000000000000000000000600052604160045260246000fd5b6040519080825280602002602001820160405280156128905781602001602082028036833780820191505090505b50905060005b83811015612d75578681815181106128d7577f4e487b7100000000000000000000000000000000000000000000000000000000600052603260045260246000fd5b6020026020010151600001518260006006846128f391906137a3565b6128fd919061374d565b81518110612934577f4e487b7100000000000000000000000000000000000000000000000000000000600052603260045260246000fd5b602002602001018181525050868181518110612979577f4e487b7100000000000000000000000000000000000000000000000000000000600052603260045260246000fd5b60200260200101516020015182600160068461299591906137a3565b61299f919061374d565b815181106129d6577f4e487b7100000000000000000000000000000000000000000000000000000000600052603260045260246000fd5b602002602001018181525050858181518110612a1b577f4e487b7100000000000000000000000000000000000000000000000000000000600052603260045260246000fd5b602002602001015160000151600060028110612a60577f4e487b7100000000000000000000000000000000000000000000000000000000600052603260045260246000fd5b6020020151826002600684612a7591906137a3565b612a7f919061374d565b81518110612ab6577f4e487b7100000000000000000000000000000000000000000000000000000000600052603260045260246000fd5b602002602001018181525050858181518110612afb577f4e487b7100000000000000000000000000000000000000000000000000000000600052603260045260246000fd5b602002602001015160000151600160028110612b40577f4e487b7100000000000000000000000000000000000000000000000000000000600052603260045260246000fd5b6020020151826003600684612b5591906137a3565b612b5f919061374d565b81518110612b96577f4e487b7100000000000000000000000000000000000000000000000000000000600052603260045260246000fd5b602002602001018181525050858181518110612bdb577f4e487b7100000000000000000000000000000000000000000000000000000000600052603260045260246000fd5b602002602001015160200151600060028110612c20577f4e487b7100000000000000000000000000000000000000000000000000000000600052603260045260246000fd5b6020020151826004600684612c3591906137a3565b612c3f919061374d565b81518110612c76577f4e487b7100000000000000000000000000000000000000000000000000000000600052603260045260246000fd5b602002602001018181525050858181518110612cbb577f4e487b7100000000000000000000000000000000000000000000000000000000600052603260045260246000fd5b602002602001015160200151600160028110612d00577f4e487b7100000000000000000000000000000000000000000000000000000000600052603260045260246000fd5b6020020151826005600684612d1591906137a3565b612d1f919061374d565b81518110612d56577f4e487b7100000000000000000000000000000000000000000000000000000000600052603260045260246000fd5b6020026020010181815250508080612d6d906138db565b915050612896565b50612d7e612f34565b6000602082602086026020860160086107d05a03fa90508060008114612da357612da5565bfe5b5080612de6576040517f08c379a0000000000000000000000000000000000000000000000000000000008152600401612ddd9061365e565b60405180910390fd5b600082600060018110612e22577f4e487b7100000000000000000000000000000000000000000000000000000000600052603260045260246000fd5b602002015114159550505050505092915050565b6040518060600160405280612e49612eb0565b8152602001612e56612f0e565b8152602001612e63612eb0565b81525090565b6040518060a00160405280612e7c612eb0565b8152602001612e89612f0e565b8152602001612e96612f0e565b8152602001612ea3612f0e565b8152602001606081525090565b604051806040016040528060008152602001600081525090565b6040518060600160405280600390602082028036833780820191505090505090565b6040518060800160405280600490602082028036833780820191505090505090565b6040518060400160405280612f21612f56565b8152602001612f2e612f56565b81525090565b6040518060200160405280600190602082028036833780820191505090505090565b6040518060400160405280600290602082028036833780820191505090505090565b6000612f8b612f86846136ca565b613699565b90508082856040860282011115612fa157600080fd5b60005b85811015612fd15781612fb788826130ef565b845260208401935060408301925050600181019050612fa4565b5050509392505050565b6000612fee612fe9846136f0565b613699565b9050808285602086028201111561300457600080fd5b60005b85811015613034578161301a8882613155565b845260208401935060208301925050600181019050613007565b5050509392505050565b600061305161304c84613716565b613699565b9050808285602086028201111561306757600080fd5b60005b85811015613097578161307d8882613155565b84526020840193506020830192505060018101905061306a565b5050509392505050565b600082601f8301126130b257600080fd5b60026130bf848285612f78565b91505092915050565b600082601f8301126130d957600080fd5b600c6130e6848285612fdb565b91505092915050565b600082601f83011261310057600080fd5b600261310d84828561303e565b91505092915050565b600081359050613125816139e2565b92915050565b60008135905061313a816139f9565b92915050565b60008135905061314f81613a10565b92915050565b60008135905061316481613a27565b92915050565b600080600080610280858703121561318157600080fd5b600061318f878288016130ef565b94505060406131a0878288016130a1565b93505060c06131b1878288016130ef565b9250506101006131c3878288016130c8565b91505092959194509250565b6000602082840312156131e157600080fd5b60006131ef84828501613140565b91505092915050565b60006020828403121561320a57600080fd5b600061321884828501613155565b91505092915050565b600080600080600060a0868803121561323957600080fd5b600061324788828901613155565b955050602061325888828901613140565b945050604061326988828901613116565b935050606061327a88828901613140565b925050608061328b8882890161312b565b9150509295509295909350565b600080604083850312156132ab57600080fd5b60006132b985828601613155565b92505060206132ca85828601613155565b9150509250929050565b60008060008060008060c087890312156132ed57600080fd5b60006132fb89828a01613155565b965050602061330c89828a01613155565b955050604061331d89828a01613140565b945050606061332e89828a01613116565b935050608061333f89828a01613140565b92505060a061335089828a0161312b565b9150509295509295509295565b61336681613831565b82525050565b61337581613843565b82525050565b6133848161384f565b82525050565b6133938161387b565b82525050565b6133a2816138a7565b82525050565b60006133b560128361373c565b91507f76657269666965722d6261642d696e70757400000000000000000000000000006000830152602082019050919050565b60006133f560128361373c565b91507f70616972696e672d6d756c2d6661696c656400000000000000000000000000006000830152602082019050919050565b6000613435601f8361373c565b91507f76657269666965722d6774652d736e61726b2d7363616c61722d6669656c64006000830152602082019050919050565b600061347560168361373c565b91507f70616972696e672d6c656e677468732d6661696c6564000000000000000000006000830152602082019050919050565b60006134b560128361373c565b91507f70616972696e672d6164642d6661696c656400000000000000000000000000006000830152602082019050919050565b60006134f560158361373c565b91507f70616972696e672d6f70636f64652d6661696c656400000000000000000000006000830152602082019050919050565b613531816138d1565b82525050565b600060208201905061354c600083018461335d565b92915050565b6000602082019050613567600083018461336c565b92915050565b6000602082019050613582600083018461337b565b92915050565b600060208201905061359d600083018461338a565b92915050565b60006020820190506135b86000830184613399565b92915050565b600060208201905081810360008301526135d7816133a8565b9050919050565b600060208201905081810360008301526135f7816133e8565b9050919050565b6000602082019050818103600083015261361781613428565b9050919050565b6000602082019050818103600083015261363781613468565b9050919050565b60006020820190508181036000830152613657816134a8565b9050919050565b60006020820190508181036000830152613677816134e8565b9050919050565b60006020820190506136936000830184613528565b92915050565b6000604051905081810181811067ffffffffffffffff821117156136c0576136bf6139b3565b5b8060405250919050565b600067ffffffffffffffff8211156136e5576136e46139b3565b5b602082029050919050565b600067ffffffffffffffff82111561370b5761370a6139b3565b5b602082029050919050565b600067ffffffffffffffff821115613731576137306139b3565b5b602082029050919050565b600082825260208201905092915050565b6000613758826138d1565b9150613763836138d1565b9250827fffffffffffffffffffffffffffffffffffffffffffffffffffffffffffffffff0382111561379857613797613955565b5b828201905092915050565b60006137ae826138d1565b91506137b9836138d1565b9250817fffffffffffffffffffffffffffffffffffffffffffffffffffffffffffffffff04831182151516156137f2576137f1613955565b5b828202905092915050565b6000613808826138d1565b9150613813836138d1565b92508282101561382657613825613955565b5b828203905092915050565b600061383c826138b1565b9050919050565b60008115159050919050565b60007fffffffffffffffffffffffffffffffffffffffffffffffff000000000000000082169050919050565b60007fffffffffffffffffffffffffffffffffffffffffffffffffffffffff0000000082169050919050565b6000819050919050565b600073ffffffffffffffffffffffffffffffffffffffff82169050919050565b6000819050919050565b60006138e6826138d1565b91507fffffffffffffffffffffffffffffffffffffffffffffffffffffffffffffffff82141561391957613918613955565b5b600182019050919050565b600061392f826138d1565b915061393a836138d1565b92508261394a57613949613984565b5b828206905092915050565b7f4e487b7100000000000000000000000000000000000000000000000000000000600052601160045260246000fd5b7f4e487b7100000000000000000000000000000000000000000000000000000000600052601260045260246000fd5b7f4e487b7100000000000000000000000000000000000000000000000000000000600052604160045260246000fd5b6139eb8161384f565b81146139f657600080fd5b50565b613a028161387b565b8114613a0d57600080fd5b50565b613a19816138a7565b8114613a2457600080fd5b50565b613a30816138d1565b8114613a3b57600080fd5b5056fea264697066735822122053817c74ecb9f5fbefe49909c7c31598394ff38ff610bfcc07831941dcdfe13f64736f6c63430008000033a264697066735822122007919b339ca0039c4cf7d29f8a0426188f14b6cd28afac0206ff1368de8c492d64736f6c63430008000033",
  "linkReferences": {},
  "deployedLinkReferences": {}
}