{
  "_format": "hh-sol-artifact-1",
  "contractName": "Matching5",
  "sourceName": "contracts/Matching5.sol",
  "abi": [
    {
      "anonymous": false,
      "inputs": [
        {
          "indexed": false,
          "internalType": "uint256",
          "name": "counter",
          "type": "uint256"
        }
      ],
      "name": "Register",
      "type": "event"
    },
    {
      "inputs": [
        {
          "internalType": "uint256",
          "name": "uid",
          "type": "uint256"
        },
        {
          "internalType": "uint256",
          "name": "sHash",
          "type": "uint256"
        }
      ],
      "name": "commitScoreHash",
      "outputs": [],
      "stateMutability": "nonpayable",
      "type": "function"
    },
    {
      "inputs": [
        {
          "internalType": "uint256",
          "name": "",
          "type": "uint256"
        }
      ],
      "name": "committer",
      "outputs": [
        {
          "internalType": "address",
          "name": "",
          "type": "address"
        }
      ],
      "stateMutability": "view",
      "type": "function"
    },
    {
      "inputs": [],
      "name": "counter",
      "outputs": [
        {
          "internalType": "uint256",
          "name": "",
          "type": "uint256"
        }
      ],
      "stateMutability": "view",
      "type": "function"
    },
    {
      "inputs": [
        {
          "internalType": "uint256",
          "name": "",
          "type": "uint256"
        }
      ],
      "name": "matchingHash",
      "outputs": [
        {
          "internalType": "uint256",
          "name": "",
          "type": "uint256"
        }
      ],
      "stateMutability": "view",
      "type": "function"
    },
    {
      "inputs": [
        {
          "internalType": "uint256[2]",
          "name": "a",
          "type": "uint256[2]"
        },
        {
          "internalType": "uint256[2][2]",
          "name": "b",
          "type": "uint256[2][2]"
        },
        {
          "internalType": "uint256[2]",
          "name": "c",
          "type": "uint256[2]"
        },
        {
          "internalType": "uint256[20]",
          "name": "input",
          "type": "uint256[20]"
        }
      ],
      "name": "register",
      "outputs": [
        {
          "internalType": "bool",
          "name": "",
          "type": "bool"
        }
      ],
      "stateMutability": "nonpayable",
      "type": "function"
    },
    {
      "inputs": [],
      "name": "registered",
      "outputs": [
        {
          "internalType": "bool",
          "name": "",
          "type": "bool"
        }
      ],
      "stateMutability": "view",
      "type": "function"
    },
    {
      "inputs": [],
      "name": "reset",
      "outputs": [],
      "stateMutability": "nonpayable",
      "type": "function"
    },
    {
      "inputs": [
        {
          "internalType": "uint256",
          "name": "",
          "type": "uint256"
        }
      ],
      "name": "scoreHash",
      "outputs": [
        {
          "internalType": "uint256",
          "name": "",
          "type": "uint256"
        }
      ],
      "stateMutability": "view",
      "type": "function"
    },
    {
      "inputs": [
        {
          "internalType": "uint256[2]",
          "name": "a",
          "type": "uint256[2]"
        },
        {
          "internalType": "uint256[2][2]",
          "name": "b",
          "type": "uint256[2][2]"
        },
        {
          "internalType": "uint256[2]",
          "name": "c",
          "type": "uint256[2]"
        },
        {
          "internalType": "uint256[20]",
          "name": "input",
          "type": "uint256[20]"
        }
      ],
      "name": "verifyProof",
      "outputs": [
        {
          "internalType": "bool",
          "name": "r",
          "type": "bool"
        }
      ],
      "stateMutability": "view",
      "type": "function"
    }
  ],
  "bytecode": "0x608060405234801561001057600080fd5b506135ab806100206000396000f3fe608060405234801561001057600080fd5b50600436106100935760003560e01c806379f279151161006657806379f2791514610134578063d826f88f14610164578063dab3f5ae1461016e578063e56ac42f1461018a578063f70eae9d146101ba57610093565b80631ba4747e146100985780632de40ce3146100c8578063334bb313146100e657806361bc221a14610116575b600080fd5b6100b260048036038101906100ad9190612f54565b6101ea565b6040516100bf9190613166565b60405180910390f35b6100d0610220565b6040516100dd9190613181565b60405180910390f35b61010060048036038101906100fb9190612f54565b610233565b60405161010d919061325c565b60405180910390f35b61011e61024e565b60405161012b919061325c565b60405180910390f35b61014e60048036038101906101499190612eef565b610254565b60405161015b9190613181565b60405180910390f35b61016c61044a565b005b61018860048036038101906101839190612f7d565b6105a9565b005b6101a4600480360381019061019f9190612eef565b610725565b6040516101b19190613181565b60405180910390f35b6101d460048036038101906101cf9190612f54565b610bd9565b6040516101e1919061325c565b60405180910390f35b601581600a81106101fa57600080fd5b016000915054906101000a900473ffffffffffffffffffffffffffffffffffffffff1681565b601f60009054906101000a900460ff1681565b600181600a811061024357600080fd5b016000915090505481565b60005481565b600080600090505b6005600261026a9190613381565b811015610325578281600560026102819190613381565b61028b919061332b565b601481106102c2577f4e487b7100000000000000000000000000000000000000000000000000000000600052603260045260246000fd5b6020020151600b82600a8110610301577f4e487b7100000000000000000000000000000000000000000000000000000000600052603260045260246000fd5b015414610312576000915050610442565b808061031d90613457565b91505061025c565b5061033285858585610725565b1561043d5760005b600560026103489190613381565b8110156103df57828160148110610388577f4e487b7100000000000000000000000000000000000000000000000000000000600052603260045260246000fd5b6020020151600182600a81106103c7577f4e487b7100000000000000000000000000000000000000000000000000000000600052603260045260246000fd5b018190555080806103d790613457565b91505061033a565b506001601f60006101000a81548160ff0219169083151502179055507fa18caf81bead264fa1872fa13294e57db41fcbee753dce1d88d33ef5f595a29d60005460405161042c919061325c565b60405180910390a160019050610442565b600090505b949350505050565b60005b6005600261045b9190613381565b811015610572576000600182600a811061049e577f4e487b7100000000000000000000000000000000000000000000000000000000600052603260045260246000fd5b01819055506000600b82600a81106104df577f4e487b7100000000000000000000000000000000000000000000000000000000600052603260045260246000fd5b01819055506000601582600a8110610520577f4e487b7100000000000000000000000000000000000000000000000000000000600052603260045260246000fd5b0160006101000a81548173ffffffffffffffffffffffffffffffffffffffff021916908373ffffffffffffffffffffffffffffffffffffffff160217905550808061056a90613457565b91505061044d565b506000601f60006101000a81548160ff02191690831515021790555060016000808282546105a0919061332b565b92505081905550565b600073ffffffffffffffffffffffffffffffffffffffff16601583600a81106105fb577f4e487b7100000000000000000000000000000000000000000000000000000000600052603260045260246000fd5b0160009054906101000a900473ffffffffffffffffffffffffffffffffffffffff1673ffffffffffffffffffffffffffffffffffffffff1614610667577f4e487b7100000000000000000000000000000000000000000000000000000000600052600160045260246000fd5b33601583600a81106106a2577f4e487b7100000000000000000000000000000000000000000000000000000000600052603260045260246000fd5b0160006101000a81548173ffffffffffffffffffffffffffffffffffffffff021916908373ffffffffffffffffffffffffffffffffffffffff16021790555080600b83600a811061071c577f4e487b7100000000000000000000000000000000000000000000000000000000600052603260045260246000fd5b01819055505050565b600061072f612bfa565b604051806040016040528087600060028110610774577f4e487b7100000000000000000000000000000000000000000000000000000000600052603260045260246000fd5b60200201518152602001876001600281106107b8577f4e487b7100000000000000000000000000000000000000000000000000000000600052603260045260246000fd5b602002015181525081600001819052506040518060400160405280604051806040016040528088600060028110610818577f4e487b7100000000000000000000000000000000000000000000000000000000600052603260045260246000fd5b6020020151600060028110610856577f4e487b7100000000000000000000000000000000000000000000000000000000600052603260045260246000fd5b602002015181526020018860006002811061089a577f4e487b7100000000000000000000000000000000000000000000000000000000600052603260045260246000fd5b60200201516001600281106108d8577f4e487b7100000000000000000000000000000000000000000000000000000000600052603260045260246000fd5b6020020151815250815260200160405180604001604052808860016002811061092a577f4e487b7100000000000000000000000000000000000000000000000000000000600052603260045260246000fd5b6020020151600060028110610968577f4e487b7100000000000000000000000000000000000000000000000000000000600052603260045260246000fd5b60200201518152602001886001600281106109ac577f4e487b7100000000000000000000000000000000000000000000000000000000600052603260045260246000fd5b60200201516001600281106109ea577f4e487b7100000000000000000000000000000000000000000000000000000000600052603260045260246000fd5b60200201518152508152508160200181905250604051806040016040528085600060028110610a42577f4e487b7100000000000000000000000000000000000000000000000000000000600052603260045260246000fd5b6020020151815260200185600160028110610a86577f4e487b7100000000000000000000000000000000000000000000000000000000600052603260045260246000fd5b602002015181525081604001819052506000601467ffffffffffffffff811115610ad9577f4e487b7100000000000000000000000000000000000000000000000000000000600052604160045260246000fd5b604051908082528060200260200182016040528015610b075781602001602082028036833780820191505090505b50905060005b6014811015610bac57848160148110610b4f577f4e487b7100000000000000000000000000000000000000000000000000000000600052603260045260246000fd5b6020020151828281518110610b8d577f4e487b7100000000000000000000000000000000000000000000000000000000600052603260045260246000fd5b6020026020010181815250508080610ba490613457565b915050610b0d565b506000610bb98284610bf4565b1415610bca57600192505050610bd1565b6000925050505b949350505050565b600b81600a8110610be957600080fd5b016000915090505481565b6000807f30644e72e131a029b85045b68181585d2833e84879b9709143e1f593f000000190506000610c24610e7f565b905080608001515160018651610c3a919061332b565b14610c7a576040517f08c379a0000000000000000000000000000000000000000000000000000000008152600401610c719061319c565b60405180910390fd5b60006040518060400160405280600081526020016000815250905060005b8651811015610ddb5783878281518110610cdb577f4e487b7100000000000000000000000000000000000000000000000000000000600052603260045260246000fd5b602002602001015110610d23576040517f08c379a0000000000000000000000000000000000000000000000000000000008152600401610d1a906131dc565b60405180910390fd5b610dc682610dc18560800151600185610d3c919061332b565b81518110610d73577f4e487b7100000000000000000000000000000000000000000000000000000000600052603260045260246000fd5b60200260200101518a8581518110610db4577f4e487b7100000000000000000000000000000000000000000000000000000000600052603260045260246000fd5b6020026020010151611eaf565b611ffe565b91508080610dd390613457565b915050610c98565b50610e2b818360800151600081518110610e1e577f4e487b7100000000000000000000000000000000000000000000000000000000600052603260045260246000fd5b6020026020010151611ffe565b9050610e61610e3d8660000151612199565b8660200151846000015185602001518587604001518b60400151896060015161223e565b610e715760019350505050610e79565b600093505050505b92915050565b610e87612c2d565b60405180604001604052807f2d4d9aa7e302d9df41749d5507949d05dbea33fbb16c643b22f599a2be6df2e281526020017f14bedd503c37ceb061d8ec60209fe345ce89830a19230301f076caff004d19268152508160000181905250604051806040016040528060405180604001604052807f0967032fcbf776d1afc985f88877f182d38480a653f2decaa9794cbc3bf3060c81526020017f0e187847ad4c798374d0d6732bf501847dd68bc0e071241e0213bc7fc13db7ab815250815260200160405180604001604052807f304cfbd1e08a704a99f5e847d93f8c3caafddec46b7a0d379da69a4d112346a781526020017f1739c1b1a457a8c7313123d24d2f9192f896b7c63eea05a9d57f06547ad0cec88152508152508160200181905250604051806040016040528060405180604001604052807f198e9393920d483a7260bfb731fb5d25f1aa493335a9e71297e485b7aef312c281526020017f1800deef121f1e76426a00665e5c4479674322d4f75edadd46debd5cd992f6ed815250815260200160405180604001604052807f090689d0585ff075ec9e99ad690c3395bc4b313370b38ef355acdadcd122975b81526020017f12c85ea5db8c6deb4aab71808dcb408fe3d1e7690c43d37b4ce6cc0166fa7daa8152508152508160400181905250604051806040016040528060405180604001604052807f2917ef91a8a4e066c4ced042a0153df263976cd7cb1dbed9abf0811d2f549adb81526020017f208199c4086249cc43a11fd2e74eaa66f2914dd1afc7c99f6058e0a381fa62f7815250815260200160405180604001604052807f0740b38306acc49adb97c3169b27d5faa72c975ea34298bde2276ee3feef784281526020017f0265016649530bae775c86efe3d611f5a7eb58374cd5e73f38fd6b2415bef2b98152508152508160600181905250601567ffffffffffffffff811115611174577f4e487b7100000000000000000000000000000000000000000000000000000000600052604160045260246000fd5b6040519080825280602002602001820160405280156111ad57816020015b61119a612c74565b8152602001906001900390816111925790505b50816080018190525060405180604001604052807f1e36ee4a067fd1b43dc8824a7d62e13d726ef91fb11e58360ec8c840194fa35081526020017f050a473e292721216ddb30f3d3e577078e4172816e9b139ce2a5586e2c4597e18152508160800151600081518110611249577f4e487b7100000000000000000000000000000000000000000000000000000000600052603260045260246000fd5b602002602001018190525060405180604001604052807f2bae46b329c349727b9da17d4f8fb402732942af125ccdd9f141ab86b1e7af2b81526020017f1c158d103c8fa7dd1c0105a8fd86ea37f07fb6776a9e42198ea77d32c7a2211a81525081608001516001815181106112e7577f4e487b7100000000000000000000000000000000000000000000000000000000600052603260045260246000fd5b602002602001018190525060405180604001604052807f2de3c8e6e3ac1d00a7b0e8e6699cff1bf5ce764688a6afc6d82431ea7c53f51881526020017f2bde36cb4cfff6e9bdb1a616df2e761a79560c757cf158b3a3a6c119dc35fc4b8152508160800151600281518110611385577f4e487b7100000000000000000000000000000000000000000000000000000000600052603260045260246000fd5b602002602001018190525060405180604001604052807f22a4629c281c6a4e3cbc126e363c5e7da974de9d3776cc10118df1e6747ee15381526020017f2fcaa34b9e92a06a66b5ba56c893421ccd1047f593b9c79f308f5152b74a191b8152508160800151600381518110611423577f4e487b7100000000000000000000000000000000000000000000000000000000600052603260045260246000fd5b602002602001018190525060405180604001604052807f2b75fdce4935fe0efa5551bb155c704766296a06705b489d8788853b08fae40481526020017f24e9dd64d1569d403ed5cec55df366f19f9c165073d9244b4bb02881e60614b181525081608001516004815181106114c1577f4e487b7100000000000000000000000000000000000000000000000000000000600052603260045260246000fd5b602002602001018190525060405180604001604052807f2d6dee159cc471539a8f6e31f9b8b44bb1dddbf08155ca0419197a3fe0effeff81526020017f22f1bcc64c55918e52acad5a34b34a5a06b3c4761f1ad52ab8eedd476268a492815250816080015160058151811061155f577f4e487b7100000000000000000000000000000000000000000000000000000000600052603260045260246000fd5b602002602001018190525060405180604001604052807f0c4edc5d404d02744a406d9e02a7435a5e166d805d8b82d1a905ecc4ab56af9281526020017f0bb7fe2bb6a0676dfc679d3251b52a502201bd0c09269517f61bc3ab1d62990781525081608001516006815181106115fd577f4e487b7100000000000000000000000000000000000000000000000000000000600052603260045260246000fd5b602002602001018190525060405180604001604052807f1f7637aa2f807638cef9b9b10f29c17bd44c32d3c657d023b61274cc23bbc23681526020017f0587a8f699d9fe8846b3a4208fba94608afb0c6ab75a16ff6599f28822c836d7815250816080015160078151811061169b577f4e487b7100000000000000000000000000000000000000000000000000000000600052603260045260246000fd5b602002602001018190525060405180604001604052807f19a5ec842afacfc2598521f5a4a1ce577305504c34781639c77dc4920046e50c81526020017f297eb521581b1cb5b5dba822b70648eb81f16bae26efc8bc1f8e562a8d8a18d48152508160800151600881518110611739577f4e487b7100000000000000000000000000000000000000000000000000000000600052603260045260246000fd5b602002602001018190525060405180604001604052807f28f725cd1b2542e3c2097358dc113757e42bc2cb76255eb54b5de5aae89ae35381526020017f2093341727055b2f840e7c6fe41e5f0f4d37297163c32725558175107c82e94481525081608001516009815181106117d7577f4e487b7100000000000000000000000000000000000000000000000000000000600052603260045260246000fd5b602002602001018190525060405180604001604052807f1d286a3529d4b020e41c29bc35ebf49d5b3d4a83cf648b585c799d52d0aababc81526020017f0129699a1a32772b1ac3ece7d4fff430a6180cb9af90b1aa1314b37286e1e6f28152508160800151600a81518110611875577f4e487b7100000000000000000000000000000000000000000000000000000000600052603260045260246000fd5b602002602001018190525060405180604001604052807f2708dd8bac33607fffc56658d7af694a48a9e695a6055ec039cb48d0aea1cf3981526020017f240e20e0d3654aca44bbeadd3086cdcc3e1e0af3e6197427293ea98825a2cb4e8152508160800151600b81518110611913577f4e487b7100000000000000000000000000000000000000000000000000000000600052603260045260246000fd5b602002602001018190525060405180604001604052807f1e5e6037506914fe4c50b7e8933cf521b4c313c57b664fb9a067d1b627c2aae081526020017f0cf2304160001f8101cbc25375d45a2865e079ddbfa53d059a634d40cd23a0978152508160800151600c815181106119b1577f4e487b7100000000000000000000000000000000000000000000000000000000600052603260045260246000fd5b602002602001018190525060405180604001604052807f0de017ff9663331c0824c495bea96166e3069b64c0a61e34d11054a78706852d81526020017f05bf32fb41b3c8267f568c6e5328394ebe4cd9621d1da559c08aa4405503de458152508160800151600d81518110611a4f577f4e487b7100000000000000000000000000000000000000000000000000000000600052603260045260246000fd5b602002602001018190525060405180604001604052807f18a3a436fa064b9a367c1ea19732347c5515e27e71801e7cadae1a439d07873d81526020017f2e4f910368ea4ed0d1e66aff6245475eab43782e6a8187fe5890dcda07ab4d4f8152508160800151600e81518110611aed577f4e487b7100000000000000000000000000000000000000000000000000000000600052603260045260246000fd5b602002602001018190525060405180604001604052807f2dbb9ed2b097f571ac41abece1f900bf993453e068d64cf260a4f1762016487c81526020017f27822525a15c6a1bae27f411459d1781449d58d147d39fd0c821da021cc95eff8152508160800151600f81518110611b8b577f4e487b7100000000000000000000000000000000000000000000000000000000600052603260045260246000fd5b602002602001018190525060405180604001604052807f0fa915af0d4a44a47d025bc289f5cdbbc701040320de84e87cfa17d0e0d6eebd81526020017f14ad6b47d48ceccc84e751db39c91c427f591310446fef508482c7e680688acb8152508160800151601081518110611c29577f4e487b7100000000000000000000000000000000000000000000000000000000600052603260045260246000fd5b602002602001018190525060405180604001604052807f0c6fb086ea63ecf8f5e0c095401d038bcf407636afec66e35bfcce7f4cfe5d0181526020017f278b17429a271b4ab0aa2e01cc3cd47ae43ab6f613ba23851f6f48b1492ba6448152508160800151601181518110611cc7577f4e487b7100000000000000000000000000000000000000000000000000000000600052603260045260246000fd5b602002602001018190525060405180604001604052807f031529a8b3b9ab9df57160feaacb5c61ff3c6b314dba1fc74a880441b3d2d64a81526020017f2e87a5911df9e0ede9c8cb4bbb8aefae9750b9a31d7f8756c81116ae4fe648248152508160800151601281518110611d65577f4e487b7100000000000000000000000000000000000000000000000000000000600052603260045260246000fd5b602002602001018190525060405180604001604052807f204ba641fb475124a6f189523b41ac9f751379de56b0bdd4a4e4d34a0937d90f81526020017f1b63a6bd98d9c8a2d5cec052e49533aba0850eca9be1d658d54bb31b5fd9621e8152508160800151601381518110611e03577f4e487b7100000000000000000000000000000000000000000000000000000000600052603260045260246000fd5b602002602001018190525060405180604001604052807f1a804ba59de28293dcc6b338bca97417c9ac5565398f71ebcdf2b96e2c92ca7681526020017f233db5ed51f5b69ab4c1236c85c0ad0481fb94599e383219bb24a93b82da7d9a8152508160800151601481518110611ea1577f4e487b7100000000000000000000000000000000000000000000000000000000600052603260045260246000fd5b602002602001018190525090565b611eb7612c74565b611ebf612c8e565b836000015181600060038110611efe577f4e487b7100000000000000000000000000000000000000000000000000000000600052603260045260246000fd5b602002018181525050836020015181600160038110611f46577f4e487b7100000000000000000000000000000000000000000000000000000000600052603260045260246000fd5b6020020181815250508281600260038110611f8a577f4e487b7100000000000000000000000000000000000000000000000000000000600052603260045260246000fd5b602002018181525050600060608360808460076107d05a03fa90508060008114611fb357611fb5565bfe5b5080611ff6576040517f08c379a0000000000000000000000000000000000000000000000000000000008152600401611fed906131bc565b60405180910390fd5b505092915050565b612006612c74565b61200e612cb0565b83600001518160006004811061204d577f4e487b7100000000000000000000000000000000000000000000000000000000600052603260045260246000fd5b602002018181525050836020015181600160048110612095577f4e487b7100000000000000000000000000000000000000000000000000000000600052603260045260246000fd5b6020020181815250508260000151816002600481106120dd577f4e487b7100000000000000000000000000000000000000000000000000000000600052603260045260246000fd5b602002018181525050826020015181600360048110612125577f4e487b7100000000000000000000000000000000000000000000000000000000600052603260045260246000fd5b602002018181525050600060608360c08460066107d05a03fa9050806000811461214e57612150565bfe5b5080612191576040517f08c379a00000000000000000000000000000000000000000000000000000000081526004016121889061321c565b60405180910390fd5b505092915050565b6121a1612c74565b60007f30644e72e131a029b85045b68181585d97816a916871ca8d3c208c16d87cfd479050600083600001511480156121de575060008360200151145b15612202576040518060400160405280600081526020016000815250915050612239565b60405180604001604052808460000151815260200182856020015161222791906134a0565b8361223291906133db565b8152509150505b919050565b600080600467ffffffffffffffff811115612282577f4e487b7100000000000000000000000000000000000000000000000000000000600052604160045260246000fd5b6040519080825280602002602001820160405280156122bb57816020015b6122a8612c74565b8152602001906001900390816122a05790505b5090506000600467ffffffffffffffff811115612301577f4e487b7100000000000000000000000000000000000000000000000000000000600052604160045260246000fd5b60405190808252806020026020018201604052801561233a57816020015b612327612cd2565b81526020019060019003908161231f5790505b5090508a82600081518110612378577f4e487b7100000000000000000000000000000000000000000000000000000000600052603260045260246000fd5b602002602001018190525088826001815181106123be577f4e487b7100000000000000000000000000000000000000000000000000000000600052603260045260246000fd5b60200260200101819052508682600281518110612404577f4e487b7100000000000000000000000000000000000000000000000000000000600052603260045260246000fd5b6020026020010181905250848260038151811061244a577f4e487b7100000000000000000000000000000000000000000000000000000000600052603260045260246000fd5b60200260200101819052508981600081518110612490577f4e487b7100000000000000000000000000000000000000000000000000000000600052603260045260246000fd5b602002602001018190525087816001815181106124d6577f4e487b7100000000000000000000000000000000000000000000000000000000600052603260045260246000fd5b6020026020010181905250858160028151811061251c577f4e487b7100000000000000000000000000000000000000000000000000000000600052603260045260246000fd5b60200260200101819052508381600381518110612562577f4e487b7100000000000000000000000000000000000000000000000000000000600052603260045260246000fd5b60200260200101819052506125778282612587565b9250505098975050505050505050565b600081518351146125cd576040517f08c379a00000000000000000000000000000000000000000000000000000000081526004016125c4906131fc565b60405180910390fd5b60008351905060006006826125e29190613381565b905060008167ffffffffffffffff811115612626577f4e487b7100000000000000000000000000000000000000000000000000000000600052604160045260246000fd5b6040519080825280602002602001820160405280156126545781602001602082028036833780820191505090505b50905060005b83811015612b395786818151811061269b577f4e487b7100000000000000000000000000000000000000000000000000000000600052603260045260246000fd5b6020026020010151600001518260006006846126b79190613381565b6126c1919061332b565b815181106126f8577f4e487b7100000000000000000000000000000000000000000000000000000000600052603260045260246000fd5b60200260200101818152505086818151811061273d577f4e487b7100000000000000000000000000000000000000000000000000000000600052603260045260246000fd5b6020026020010151602001518260016006846127599190613381565b612763919061332b565b8151811061279a577f4e487b7100000000000000000000000000000000000000000000000000000000600052603260045260246000fd5b6020026020010181815250508581815181106127df577f4e487b7100000000000000000000000000000000000000000000000000000000600052603260045260246000fd5b602002602001015160000151600060028110612824577f4e487b7100000000000000000000000000000000000000000000000000000000600052603260045260246000fd5b60200201518260026006846128399190613381565b612843919061332b565b8151811061287a577f4e487b7100000000000000000000000000000000000000000000000000000000600052603260045260246000fd5b6020026020010181815250508581815181106128bf577f4e487b7100000000000000000000000000000000000000000000000000000000600052603260045260246000fd5b602002602001015160000151600160028110612904577f4e487b7100000000000000000000000000000000000000000000000000000000600052603260045260246000fd5b60200201518260036006846129199190613381565b612923919061332b565b8151811061295a577f4e487b7100000000000000000000000000000000000000000000000000000000600052603260045260246000fd5b60200260200101818152505085818151811061299f577f4e487b7100000000000000000000000000000000000000000000000000000000600052603260045260246000fd5b6020026020010151602001516000600281106129e4577f4e487b7100000000000000000000000000000000000000000000000000000000600052603260045260246000fd5b60200201518260046006846129f99190613381565b612a03919061332b565b81518110612a3a577f4e487b7100000000000000000000000000000000000000000000000000000000600052603260045260246000fd5b602002602001018181525050858181518110612a7f577f4e487b7100000000000000000000000000000000000000000000000000000000600052603260045260246000fd5b602002602001015160200151600160028110612ac4577f4e487b7100000000000000000000000000000000000000000000000000000000600052603260045260246000fd5b6020020151826005600684612ad99190613381565b612ae3919061332b565b81518110612b1a577f4e487b7100000000000000000000000000000000000000000000000000000000600052603260045260246000fd5b6020026020010181815250508080612b3190613457565b91505061265a565b50612b42612cf8565b6000602082602086026020860160086107d05a03fa90508060008114612b6757612b69565bfe5b5080612baa576040517f08c379a0000000000000000000000000000000000000000000000000000000008152600401612ba19061323c565b60405180910390fd5b600082600060018110612be6577f4e487b7100000000000000000000000000000000000000000000000000000000600052603260045260246000fd5b602002015114159550505050505092915050565b6040518060600160405280612c0d612c74565b8152602001612c1a612cd2565b8152602001612c27612c74565b81525090565b6040518060a00160405280612c40612c74565b8152602001612c4d612cd2565b8152602001612c5a612cd2565b8152602001612c67612cd2565b8152602001606081525090565b604051806040016040528060008152602001600081525090565b6040518060600160405280600390602082028036833780820191505090505090565b6040518060800160405280600490602082028036833780820191505090505090565b6040518060400160405280612ce5612d1a565b8152602001612cf2612d1a565b81525090565b6040518060200160405280600190602082028036833780820191505090505090565b6040518060400160405280600290602082028036833780820191505090505090565b6000612d4f612d4a846132a8565b613277565b90508082856040860282011115612d6557600080fd5b60005b85811015612d955781612d7b8882612eb3565b845260208401935060408301925050600181019050612d68565b5050509392505050565b6000612db2612dad846132ce565b613277565b90508082856020860282011115612dc857600080fd5b60005b85811015612df85781612dde8882612eda565b845260208401935060208301925050600181019050612dcb565b5050509392505050565b6000612e15612e10846132f4565b613277565b90508082856020860282011115612e2b57600080fd5b60005b85811015612e5b5781612e418882612eda565b845260208401935060208301925050600181019050612e2e565b5050509392505050565b600082601f830112612e7657600080fd5b6002612e83848285612d3c565b91505092915050565b600082601f830112612e9d57600080fd5b6014612eaa848285612d9f565b91505092915050565b600082601f830112612ec457600080fd5b6002612ed1848285612e02565b91505092915050565b600081359050612ee98161355e565b92915050565b6000806000806103808587031215612f0657600080fd5b6000612f1487828801612eb3565b9450506040612f2587828801612e65565b93505060c0612f3687828801612eb3565b925050610100612f4887828801612e8c565b91505092959194509250565b600060208284031215612f6657600080fd5b6000612f7484828501612eda565b91505092915050565b60008060408385031215612f9057600080fd5b6000612f9e85828601612eda565b9250506020612faf85828601612eda565b9150509250929050565b612fc28161340f565b82525050565b612fd181613421565b82525050565b6000612fe460128361331a565b91507f76657269666965722d6261642d696e70757400000000000000000000000000006000830152602082019050919050565b600061302460128361331a565b91507f70616972696e672d6d756c2d6661696c656400000000000000000000000000006000830152602082019050919050565b6000613064601f8361331a565b91507f76657269666965722d6774652d736e61726b2d7363616c61722d6669656c64006000830152602082019050919050565b60006130a460168361331a565b91507f70616972696e672d6c656e677468732d6661696c6564000000000000000000006000830152602082019050919050565b60006130e460128361331a565b91507f70616972696e672d6164642d6661696c656400000000000000000000000000006000830152602082019050919050565b600061312460158361331a565b91507f70616972696e672d6f70636f64652d6661696c656400000000000000000000006000830152602082019050919050565b6131608161344d565b82525050565b600060208201905061317b6000830184612fb9565b92915050565b60006020820190506131966000830184612fc8565b92915050565b600060208201905081810360008301526131b581612fd7565b9050919050565b600060208201905081810360008301526131d581613017565b9050919050565b600060208201905081810360008301526131f581613057565b9050919050565b6000602082019050818103600083015261321581613097565b9050919050565b60006020820190508181036000830152613235816130d7565b9050919050565b6000602082019050818103600083015261325581613117565b9050919050565b60006020820190506132716000830184613157565b92915050565b6000604051905081810181811067ffffffffffffffff8211171561329e5761329d61352f565b5b8060405250919050565b600067ffffffffffffffff8211156132c3576132c261352f565b5b602082029050919050565b600067ffffffffffffffff8211156132e9576132e861352f565b5b602082029050919050565b600067ffffffffffffffff82111561330f5761330e61352f565b5b602082029050919050565b600082825260208201905092915050565b60006133368261344d565b91506133418361344d565b9250827fffffffffffffffffffffffffffffffffffffffffffffffffffffffffffffffff03821115613376576133756134d1565b5b828201905092915050565b600061338c8261344d565b91506133978361344d565b9250817fffffffffffffffffffffffffffffffffffffffffffffffffffffffffffffffff04831182151516156133d0576133cf6134d1565b5b828202905092915050565b60006133e68261344d565b91506133f18361344d565b925082821015613404576134036134d1565b5b828203905092915050565b600061341a8261342d565b9050919050565b60008115159050919050565b600073ffffffffffffffffffffffffffffffffffffffff82169050919050565b6000819050919050565b60006134628261344d565b91507fffffffffffffffffffffffffffffffffffffffffffffffffffffffffffffffff821415613495576134946134d1565b5b600182019050919050565b60006134ab8261344d565b91506134b68361344d565b9250826134c6576134c5613500565b5b828206905092915050565b7f4e487b7100000000000000000000000000000000000000000000000000000000600052601160045260246000fd5b7f4e487b7100000000000000000000000000000000000000000000000000000000600052601260045260246000fd5b7f4e487b7100000000000000000000000000000000000000000000000000000000600052604160045260246000fd5b6135678161344d565b811461357257600080fd5b5056fea264697066735822122085bc866571241c27f7f4a3e0ec4a9c016ccadef03cbcfdcd595a32dbe166416664736f6c63430008000033",
  "linkReferences": {},
  "deployedLinkReferences": {}
}