{
  "_format": "hh-sol-artifact-1",
  "contractName": "Matching5",
  "sourceName": "contracts/Matching5.sol",
  "abi": [
    {
      "inputs": [],
      "stateMutability": "nonpayable",
      "type": "constructor"
    },
    {
      "anonymous": false,
      "inputs": [
        {
          "indexed": false,
          "internalType": "uint256",
          "name": "counter",
          "type": "uint256"
        }
      ],
      "name": "Register",
      "type": "event"
    },
    {
      "inputs": [
        {
          "internalType": "uint256",
          "name": "uid",
          "type": "uint256"
        },
        {
          "internalType": "uint256",
          "name": "sHash",
          "type": "uint256"
        }
      ],
      "name": "commitScoreHash",
      "outputs": [],
      "stateMutability": "nonpayable",
      "type": "function"
    },
    {
      "inputs": [
        {
          "internalType": "uint256",
          "name": "uid",
          "type": "uint256"
        },
        {
          "internalType": "uint256",
          "name": "sHash",
          "type": "uint256"
        },
        {
          "internalType": "bytes32",
          "name": "_ephemPublicKey",
          "type": "bytes32"
        },
        {
          "internalType": "bytes24",
          "name": "_nonce",
          "type": "bytes24"
        },
        {
          "internalType": "bytes32",
          "name": "_encryptedSalt1",
          "type": "bytes32"
        },
        {
          "internalType": "bytes28",
          "name": "_encryptedSalt2",
          "type": "bytes28"
        }
      ],
      "name": "commitScoreHashAndSetEncryptedSalt",
      "outputs": [],
      "stateMutability": "nonpayable",
      "type": "function"
    },
    {
      "inputs": [
        {
          "internalType": "uint256",
          "name": "",
          "type": "uint256"
        }
      ],
      "name": "committer",
      "outputs": [
        {
          "internalType": "address",
          "name": "",
          "type": "address"
        }
      ],
      "stateMutability": "view",
      "type": "function"
    },
    {
      "inputs": [],
      "name": "counter",
      "outputs": [
        {
          "internalType": "uint256",
          "name": "",
          "type": "uint256"
        }
      ],
      "stateMutability": "view",
      "type": "function"
    },
    {
      "inputs": [
        {
          "internalType": "uint256",
          "name": "",
          "type": "uint256"
        }
      ],
      "name": "encryptedSalt1",
      "outputs": [
        {
          "internalType": "bytes32",
          "name": "",
          "type": "bytes32"
        }
      ],
      "stateMutability": "view",
      "type": "function"
    },
    {
      "inputs": [
        {
          "internalType": "uint256",
          "name": "",
          "type": "uint256"
        }
      ],
      "name": "encryptedSalt2",
      "outputs": [
        {
          "internalType": "bytes28",
          "name": "",
          "type": "bytes28"
        }
      ],
      "stateMutability": "view",
      "type": "function"
    },
    {
      "inputs": [
        {
          "internalType": "uint256",
          "name": "",
          "type": "uint256"
        }
      ],
      "name": "ephemPublicKey",
      "outputs": [
        {
          "internalType": "bytes32",
          "name": "",
          "type": "bytes32"
        }
      ],
      "stateMutability": "view",
      "type": "function"
    },
    {
      "inputs": [
        {
          "internalType": "uint256",
          "name": "",
          "type": "uint256"
        }
      ],
      "name": "matchingHash",
      "outputs": [
        {
          "internalType": "uint256",
          "name": "",
          "type": "uint256"
        }
      ],
      "stateMutability": "view",
      "type": "function"
    },
    {
      "inputs": [
        {
          "internalType": "uint256",
          "name": "",
          "type": "uint256"
        }
      ],
      "name": "nonce",
      "outputs": [
        {
          "internalType": "bytes24",
          "name": "",
          "type": "bytes24"
        }
      ],
      "stateMutability": "view",
      "type": "function"
    },
    {
      "inputs": [],
      "name": "owner",
      "outputs": [
        {
          "internalType": "address",
          "name": "",
          "type": "address"
        }
      ],
      "stateMutability": "view",
      "type": "function"
    },
    {
      "inputs": [],
      "name": "publicKey",
      "outputs": [
        {
          "internalType": "bytes32",
          "name": "",
          "type": "bytes32"
        }
      ],
      "stateMutability": "view",
      "type": "function"
    },
    {
      "inputs": [
        {
          "internalType": "uint256[2]",
          "name": "a",
          "type": "uint256[2]"
        },
        {
          "internalType": "uint256[2][2]",
          "name": "b",
          "type": "uint256[2][2]"
        },
        {
          "internalType": "uint256[2]",
          "name": "c",
          "type": "uint256[2]"
        },
        {
          "internalType": "uint256[20]",
          "name": "input",
          "type": "uint256[20]"
        }
      ],
      "name": "register",
      "outputs": [
        {
          "internalType": "bool",
          "name": "",
          "type": "bool"
        }
      ],
      "stateMutability": "nonpayable",
      "type": "function"
    },
    {
      "inputs": [],
      "name": "registered",
      "outputs": [
        {
          "internalType": "bool",
          "name": "",
          "type": "bool"
        }
      ],
      "stateMutability": "view",
      "type": "function"
    },
    {
      "inputs": [],
      "name": "reset",
      "outputs": [],
      "stateMutability": "nonpayable",
      "type": "function"
    },
    {
      "inputs": [
        {
          "internalType": "uint256",
          "name": "",
          "type": "uint256"
        }
      ],
      "name": "scoreHash",
      "outputs": [
        {
          "internalType": "uint256",
          "name": "",
          "type": "uint256"
        }
      ],
      "stateMutability": "view",
      "type": "function"
    },
    {
      "inputs": [
        {
          "internalType": "uint256",
          "name": "uid",
          "type": "uint256"
        },
        {
          "internalType": "bytes32",
          "name": "_ephemPublicKey",
          "type": "bytes32"
        },
        {
          "internalType": "bytes24",
          "name": "_nonce",
          "type": "bytes24"
        },
        {
          "internalType": "bytes32",
          "name": "_encryptedSalt1",
          "type": "bytes32"
        },
        {
          "internalType": "bytes28",
          "name": "_encryptedSalt2",
          "type": "bytes28"
        }
      ],
      "name": "setEncryptedSalt",
      "outputs": [],
      "stateMutability": "nonpayable",
      "type": "function"
    },
    {
      "inputs": [
        {
          "internalType": "bytes32",
          "name": "_publicKey",
          "type": "bytes32"
        }
      ],
      "name": "setPublicKey",
      "outputs": [],
      "stateMutability": "nonpayable",
      "type": "function"
    },
    {
      "inputs": [
        {
          "internalType": "uint256[2]",
          "name": "a",
          "type": "uint256[2]"
        },
        {
          "internalType": "uint256[2][2]",
          "name": "b",
          "type": "uint256[2][2]"
        },
        {
          "internalType": "uint256[2]",
          "name": "c",
          "type": "uint256[2]"
        },
        {
          "internalType": "uint256[20]",
          "name": "input",
          "type": "uint256[20]"
        }
      ],
      "name": "verifyProof",
      "outputs": [
        {
          "internalType": "bool",
          "name": "r",
          "type": "bool"
        }
      ],
      "stateMutability": "view",
      "type": "function"
    }
  ],
  "bytecode": "0x608060405234801561001057600080fd5b50326000806101000a81548173ffffffffffffffffffffffffffffffffffffffff021916908373ffffffffffffffffffffffffffffffffffffffff160217905550613f64806100606000396000f3fe608060405234801561001057600080fd5b50600436106101165760003560e01c806379f27915116100a2578063d826f88f11610071578063d826f88f14610307578063dab3f5ae14610311578063dcf978dd1461032d578063e56ac42f1461035d578063f70eae9d1461038d57610116565b806379f279151461026d5780638da5cb5b1461029d578063ce03fdab146102bb578063d6a4745d146102eb57610116565b8063334bb313116100e9578063334bb313146101b557806342ed4dfa146101e55780635760f7e01461020157806361bc221a1461023157806363ffab311461024f57610116565b80631371cd1d1461011b5780631ba4747e1461013757806329610129146101675780632de40ce314610197575b600080fd5b610135600480360381019061013091906136bf565b6103bd565b005b610151600480360381019061014c91906136e8565b610449565b60405161015e9190613a27565b60405180910390f35b610181600480360381019061017c91906136e8565b61047f565b60405161018e9190613a78565b60405180910390f35b61019f6104a2565b6040516101ac9190613a42565b60405180910390f35b6101cf60048036038101906101ca91906136e8565b6104b5565b6040516101dc9190613b6e565b60405180910390f35b6101ff60048036038101906101fa9190613711565b6104d0565b005b61021b600480360381019061021691906136e8565b6106ee565b6040516102289190613a93565b60405180910390f35b610239610709565b6040516102469190613b6e565b60405180910390f35b61025761070f565b6040516102649190613a93565b60405180910390f35b6102876004803603810190610282919061365a565b610715565b6040516102949190613a42565b60405180910390f35b6102a561090b565b6040516102b29190613a27565b60405180910390f35b6102d560048036038101906102d091906136e8565b61092f565b6040516102e29190613a5d565b60405180910390f35b610305600480360381019061030091906137c4565b610952565b005b61030f610971565b005b61032b60048036038101906103269190613788565b610cba565b005b610347600480360381019061034291906136e8565b610e36565b6040516103549190613a93565b60405180910390f35b6103776004803603810190610372919061365a565b610e51565b6040516103849190613a42565b60405180910390f35b6103a760048036038101906103a291906136e8565b611305565b6040516103b49190613b6e565b60405180910390f35b60008054906101000a900473ffffffffffffffffffffffffffffffffffffffff1673ffffffffffffffffffffffffffffffffffffffff163373ffffffffffffffffffffffffffffffffffffffff161461043f577f4e487b7100000000000000000000000000000000000000000000000000000000600052600160045260246000fd5b8060218190555050565b601681600a811061045957600080fd5b016000915054906101000a900473ffffffffffffffffffffffffffffffffffffffff1681565b604081600a811061048f57600080fd5b016000915054906101000a900460201b81565b602060009054906101000a900460ff1681565b600281600a81106104c557600080fd5b016000915090505481565b601685600a811061050a577f4e487b7100000000000000000000000000000000000000000000000000000000600052603260045260246000fd5b0160009054906101000a900473ffffffffffffffffffffffffffffffffffffffff1673ffffffffffffffffffffffffffffffffffffffff163373ffffffffffffffffffffffffffffffffffffffff161461058d577f4e487b7100000000000000000000000000000000000000000000000000000000600052600160045260246000fd5b83602286600a81106105c8577f4e487b7100000000000000000000000000000000000000000000000000000000600052603260045260246000fd5b018190555082602c86600a8110610608577f4e487b7100000000000000000000000000000000000000000000000000000000600052603260045260246000fd5b0160006101000a81548177ffffffffffffffffffffffffffffffffffffffffffffffff021916908360401c021790555081603686600a8110610673577f4e487b7100000000000000000000000000000000000000000000000000000000600052603260045260246000fd5b018190555080604086600a81106106b3577f4e487b7100000000000000000000000000000000000000000000000000000000600052603260045260246000fd5b0160006101000a8154817bffffffffffffffffffffffffffffffffffffffffffffffffffffffff021916908360201c02179055505050505050565b602281600a81106106fe57600080fd5b016000915090505481565b60015481565b60215481565b600080600090505b6005600261072b9190613c93565b8110156107e6578281600560026107429190613c93565b61074c9190613c3d565b60148110610783577f4e487b7100000000000000000000000000000000000000000000000000000000600052603260045260246000fd5b6020020151600c82600a81106107c2577f4e487b7100000000000000000000000000000000000000000000000000000000600052603260045260246000fd5b0154146107d3576000915050610903565b80806107de90613dcb565b91505061071d565b506107f385858585610e51565b156108fe5760005b600560026108099190613c93565b8110156108a057828160148110610849577f4e487b7100000000000000000000000000000000000000000000000000000000600052603260045260246000fd5b6020020151600282600a8110610888577f4e487b7100000000000000000000000000000000000000000000000000000000600052603260045260246000fd5b0181905550808061089890613dcb565b9150506107fb565b506001602060006101000a81548160ff0219169083151502179055507fa18caf81bead264fa1872fa13294e57db41fcbee753dce1d88d33ef5f595a29d6001546040516108ed9190613b6e565b60405180910390a160019050610903565b600090505b949350505050565b60008054906101000a900473ffffffffffffffffffffffffffffffffffffffff1681565b602c81600a811061093f57600080fd5b016000915054906101000a900460401b81565b61095c8686610cba565b61096986858585856104d0565b505050505050565b60008054906101000a900473ffffffffffffffffffffffffffffffffffffffff1673ffffffffffffffffffffffffffffffffffffffff163373ffffffffffffffffffffffffffffffffffffffff16146109f3577f4e487b7100000000000000000000000000000000000000000000000000000000600052600160045260246000fd5b60005b60056002610a049190613c93565b811015610c83576000600282600a8110610a47577f4e487b7100000000000000000000000000000000000000000000000000000000600052603260045260246000fd5b01819055506000600c82600a8110610a88577f4e487b7100000000000000000000000000000000000000000000000000000000600052603260045260246000fd5b01819055506000601682600a8110610ac9577f4e487b7100000000000000000000000000000000000000000000000000000000600052603260045260246000fd5b0160006101000a81548173ffffffffffffffffffffffffffffffffffffffff021916908373ffffffffffffffffffffffffffffffffffffffff1602179055506000801b602282600a8110610b46577f4e487b7100000000000000000000000000000000000000000000000000000000600052603260045260246000fd5b0181905550600060401b602c82600a8110610b8a577f4e487b7100000000000000000000000000000000000000000000000000000000600052603260045260246000fd5b0160006101000a81548177ffffffffffffffffffffffffffffffffffffffffffffffff021916908360401c02179055506000801b603682600a8110610bf8577f4e487b7100000000000000000000000000000000000000000000000000000000600052603260045260246000fd5b0181905550600060201b604082600a8110610c3c577f4e487b7100000000000000000000000000000000000000000000000000000000600052603260045260246000fd5b0160006101000a8154817bffffffffffffffffffffffffffffffffffffffffffffffffffffffff021916908360201c02179055508080610c7b90613dcb565b9150506109f6565b506000602060006101000a81548160ff0219169083151502179055506001806000828254610cb19190613c3d565b92505081905550565b600073ffffffffffffffffffffffffffffffffffffffff16601683600a8110610d0c577f4e487b7100000000000000000000000000000000000000000000000000000000600052603260045260246000fd5b0160009054906101000a900473ffffffffffffffffffffffffffffffffffffffff1673ffffffffffffffffffffffffffffffffffffffff1614610d78577f4e487b7100000000000000000000000000000000000000000000000000000000600052600160045260246000fd5b33601683600a8110610db3577f4e487b7100000000000000000000000000000000000000000000000000000000600052603260045260246000fd5b0160006101000a81548173ffffffffffffffffffffffffffffffffffffffff021916908373ffffffffffffffffffffffffffffffffffffffff16021790555080600c83600a8110610e2d577f4e487b7100000000000000000000000000000000000000000000000000000000600052603260045260246000fd5b01819055505050565b603681600a8110610e4657600080fd5b016000915090505481565b6000610e5b613326565b604051806040016040528087600060028110610ea0577f4e487b7100000000000000000000000000000000000000000000000000000000600052603260045260246000fd5b6020020151815260200187600160028110610ee4577f4e487b7100000000000000000000000000000000000000000000000000000000600052603260045260246000fd5b602002015181525081600001819052506040518060400160405280604051806040016040528088600060028110610f44577f4e487b7100000000000000000000000000000000000000000000000000000000600052603260045260246000fd5b6020020151600060028110610f82577f4e487b7100000000000000000000000000000000000000000000000000000000600052603260045260246000fd5b6020020151815260200188600060028110610fc6577f4e487b7100000000000000000000000000000000000000000000000000000000600052603260045260246000fd5b6020020151600160028110611004577f4e487b7100000000000000000000000000000000000000000000000000000000600052603260045260246000fd5b60200201518152508152602001604051806040016040528088600160028110611056577f4e487b7100000000000000000000000000000000000000000000000000000000600052603260045260246000fd5b6020020151600060028110611094577f4e487b7100000000000000000000000000000000000000000000000000000000600052603260045260246000fd5b60200201518152602001886001600281106110d8577f4e487b7100000000000000000000000000000000000000000000000000000000600052603260045260246000fd5b6020020151600160028110611116577f4e487b7100000000000000000000000000000000000000000000000000000000600052603260045260246000fd5b6020020151815250815250816020018190525060405180604001604052808560006002811061116e577f4e487b7100000000000000000000000000000000000000000000000000000000600052603260045260246000fd5b60200201518152602001856001600281106111b2577f4e487b7100000000000000000000000000000000000000000000000000000000600052603260045260246000fd5b602002015181525081604001819052506000601467ffffffffffffffff811115611205577f4e487b7100000000000000000000000000000000000000000000000000000000600052604160045260246000fd5b6040519080825280602002602001820160405280156112335781602001602082028036833780820191505090505b50905060005b60148110156112d85784816014811061127b577f4e487b7100000000000000000000000000000000000000000000000000000000600052603260045260246000fd5b60200201518282815181106112b9577f4e487b7100000000000000000000000000000000000000000000000000000000600052603260045260246000fd5b60200260200101818152505080806112d090613dcb565b915050611239565b5060006112e58284611320565b14156112f6576001925050506112fd565b6000925050505b949350505050565b600c81600a811061131557600080fd5b016000915090505481565b6000807f30644e72e131a029b85045b68181585d2833e84879b9709143e1f593f0000001905060006113506115ab565b9050806080015151600186516113669190613c3d565b146113a6576040517f08c379a000000000000000000000000000000000000000000000000000000000815260040161139d90613aae565b60405180910390fd5b60006040518060400160405280600081526020016000815250905060005b86518110156115075783878281518110611407577f4e487b7100000000000000000000000000000000000000000000000000000000600052603260045260246000fd5b60200260200101511061144f576040517f08c379a000000000000000000000000000000000000000000000000000000000815260040161144690613aee565b60405180910390fd5b6114f2826114ed85608001516001856114689190613c3d565b8151811061149f577f4e487b7100000000000000000000000000000000000000000000000000000000600052603260045260246000fd5b60200260200101518a85815181106114e0577f4e487b7100000000000000000000000000000000000000000000000000000000600052603260045260246000fd5b60200260200101516125db565b61272a565b915080806114ff90613dcb565b9150506113c4565b5061155781836080015160008151811061154a577f4e487b7100000000000000000000000000000000000000000000000000000000600052603260045260246000fd5b602002602001015161272a565b905061158d61156986600001516128c5565b8660200151846000015185602001518587604001518b60400151896060015161296a565b61159d57600193505050506115a5565b600093505050505b92915050565b6115b3613359565b60405180604001604052807f2d4d9aa7e302d9df41749d5507949d05dbea33fbb16c643b22f599a2be6df2e281526020017f14bedd503c37ceb061d8ec60209fe345ce89830a19230301f076caff004d19268152508160000181905250604051806040016040528060405180604001604052807f0967032fcbf776d1afc985f88877f182d38480a653f2decaa9794cbc3bf3060c81526020017f0e187847ad4c798374d0d6732bf501847dd68bc0e071241e0213bc7fc13db7ab815250815260200160405180604001604052807f304cfbd1e08a704a99f5e847d93f8c3caafddec46b7a0d379da69a4d112346a781526020017f1739c1b1a457a8c7313123d24d2f9192f896b7c63eea05a9d57f06547ad0cec88152508152508160200181905250604051806040016040528060405180604001604052807f198e9393920d483a7260bfb731fb5d25f1aa493335a9e71297e485b7aef312c281526020017f1800deef121f1e76426a00665e5c4479674322d4f75edadd46debd5cd992f6ed815250815260200160405180604001604052807f090689d0585ff075ec9e99ad690c3395bc4b313370b38ef355acdadcd122975b81526020017f12c85ea5db8c6deb4aab71808dcb408fe3d1e7690c43d37b4ce6cc0166fa7daa8152508152508160400181905250604051806040016040528060405180604001604052807f06aa1e394e3b5b130516a85dea909cf29f2ac20fc876f0c9e78ff7128f5fdee981526020017f1084385d09ac849a4464a4735dbb94049ab69ca3af2d7e8113cc38a1c3e7ba63815250815260200160405180604001604052807f2179db293b04ffdf87d54eaa530e30fe4fe7ad53ba901b3786212d156a5efbbb81526020017f2cffc51c408444f5418bcaadb32a700c665db19eaa52388f4309083bae4b84238152508152508160600181905250601567ffffffffffffffff8111156118a0577f4e487b7100000000000000000000000000000000000000000000000000000000600052604160045260246000fd5b6040519080825280602002602001820160405280156118d957816020015b6118c66133a0565b8152602001906001900390816118be5790505b50816080018190525060405180604001604052807f1e36ee4a067fd1b43dc8824a7d62e13d726ef91fb11e58360ec8c840194fa35081526020017f050a473e292721216ddb30f3d3e577078e4172816e9b139ce2a5586e2c4597e18152508160800151600081518110611975577f4e487b7100000000000000000000000000000000000000000000000000000000600052603260045260246000fd5b602002602001018190525060405180604001604052807f2bae46b329c349727b9da17d4f8fb402732942af125ccdd9f141ab86b1e7af2b81526020017f1c158d103c8fa7dd1c0105a8fd86ea37f07fb6776a9e42198ea77d32c7a2211a8152508160800151600181518110611a13577f4e487b7100000000000000000000000000000000000000000000000000000000600052603260045260246000fd5b602002602001018190525060405180604001604052807f2de3c8e6e3ac1d00a7b0e8e6699cff1bf5ce764688a6afc6d82431ea7c53f51881526020017f2bde36cb4cfff6e9bdb1a616df2e761a79560c757cf158b3a3a6c119dc35fc4b8152508160800151600281518110611ab1577f4e487b7100000000000000000000000000000000000000000000000000000000600052603260045260246000fd5b602002602001018190525060405180604001604052807f22a4629c281c6a4e3cbc126e363c5e7da974de9d3776cc10118df1e6747ee15381526020017f2fcaa34b9e92a06a66b5ba56c893421ccd1047f593b9c79f308f5152b74a191b8152508160800151600381518110611b4f577f4e487b7100000000000000000000000000000000000000000000000000000000600052603260045260246000fd5b602002602001018190525060405180604001604052807f2b75fdce4935fe0efa5551bb155c704766296a06705b489d8788853b08fae40481526020017f24e9dd64d1569d403ed5cec55df366f19f9c165073d9244b4bb02881e60614b18152508160800151600481518110611bed577f4e487b7100000000000000000000000000000000000000000000000000000000600052603260045260246000fd5b602002602001018190525060405180604001604052807f2d6dee159cc471539a8f6e31f9b8b44bb1dddbf08155ca0419197a3fe0effeff81526020017f22f1bcc64c55918e52acad5a34b34a5a06b3c4761f1ad52ab8eedd476268a4928152508160800151600581518110611c8b577f4e487b7100000000000000000000000000000000000000000000000000000000600052603260045260246000fd5b602002602001018190525060405180604001604052807f0c4edc5d404d02744a406d9e02a7435a5e166d805d8b82d1a905ecc4ab56af9281526020017f0bb7fe2bb6a0676dfc679d3251b52a502201bd0c09269517f61bc3ab1d6299078152508160800151600681518110611d29577f4e487b7100000000000000000000000000000000000000000000000000000000600052603260045260246000fd5b602002602001018190525060405180604001604052807f1f7637aa2f807638cef9b9b10f29c17bd44c32d3c657d023b61274cc23bbc23681526020017f0587a8f699d9fe8846b3a4208fba94608afb0c6ab75a16ff6599f28822c836d78152508160800151600781518110611dc7577f4e487b7100000000000000000000000000000000000000000000000000000000600052603260045260246000fd5b602002602001018190525060405180604001604052807f19a5ec842afacfc2598521f5a4a1ce577305504c34781639c77dc4920046e50c81526020017f297eb521581b1cb5b5dba822b70648eb81f16bae26efc8bc1f8e562a8d8a18d48152508160800151600881518110611e65577f4e487b7100000000000000000000000000000000000000000000000000000000600052603260045260246000fd5b602002602001018190525060405180604001604052807f28f725cd1b2542e3c2097358dc113757e42bc2cb76255eb54b5de5aae89ae35381526020017f2093341727055b2f840e7c6fe41e5f0f4d37297163c32725558175107c82e9448152508160800151600981518110611f03577f4e487b7100000000000000000000000000000000000000000000000000000000600052603260045260246000fd5b602002602001018190525060405180604001604052807f1d286a3529d4b020e41c29bc35ebf49d5b3d4a83cf648b585c799d52d0aababc81526020017f0129699a1a32772b1ac3ece7d4fff430a6180cb9af90b1aa1314b37286e1e6f28152508160800151600a81518110611fa1577f4e487b7100000000000000000000000000000000000000000000000000000000600052603260045260246000fd5b602002602001018190525060405180604001604052807f2708dd8bac33607fffc56658d7af694a48a9e695a6055ec039cb48d0aea1cf3981526020017f240e20e0d3654aca44bbeadd3086cdcc3e1e0af3e6197427293ea98825a2cb4e8152508160800151600b8151811061203f577f4e487b7100000000000000000000000000000000000000000000000000000000600052603260045260246000fd5b602002602001018190525060405180604001604052807f1e5e6037506914fe4c50b7e8933cf521b4c313c57b664fb9a067d1b627c2aae081526020017f0cf2304160001f8101cbc25375d45a2865e079ddbfa53d059a634d40cd23a0978152508160800151600c815181106120dd577f4e487b7100000000000000000000000000000000000000000000000000000000600052603260045260246000fd5b602002602001018190525060405180604001604052807f0de017ff9663331c0824c495bea96166e3069b64c0a61e34d11054a78706852d81526020017f05bf32fb41b3c8267f568c6e5328394ebe4cd9621d1da559c08aa4405503de458152508160800151600d8151811061217b577f4e487b7100000000000000000000000000000000000000000000000000000000600052603260045260246000fd5b602002602001018190525060405180604001604052807f18a3a436fa064b9a367c1ea19732347c5515e27e71801e7cadae1a439d07873d81526020017f2e4f910368ea4ed0d1e66aff6245475eab43782e6a8187fe5890dcda07ab4d4f8152508160800151600e81518110612219577f4e487b7100000000000000000000000000000000000000000000000000000000600052603260045260246000fd5b602002602001018190525060405180604001604052807f2dbb9ed2b097f571ac41abece1f900bf993453e068d64cf260a4f1762016487c81526020017f27822525a15c6a1bae27f411459d1781449d58d147d39fd0c821da021cc95eff8152508160800151600f815181106122b7577f4e487b7100000000000000000000000000000000000000000000000000000000600052603260045260246000fd5b602002602001018190525060405180604001604052807f0fa915af0d4a44a47d025bc289f5cdbbc701040320de84e87cfa17d0e0d6eebd81526020017f14ad6b47d48ceccc84e751db39c91c427f591310446fef508482c7e680688acb8152508160800151601081518110612355577f4e487b7100000000000000000000000000000000000000000000000000000000600052603260045260246000fd5b602002602001018190525060405180604001604052807f0c6fb086ea63ecf8f5e0c095401d038bcf407636afec66e35bfcce7f4cfe5d0181526020017f278b17429a271b4ab0aa2e01cc3cd47ae43ab6f613ba23851f6f48b1492ba64481525081608001516011815181106123f3577f4e487b7100000000000000000000000000000000000000000000000000000000600052603260045260246000fd5b602002602001018190525060405180604001604052807f031529a8b3b9ab9df57160feaacb5c61ff3c6b314dba1fc74a880441b3d2d64a81526020017f2e87a5911df9e0ede9c8cb4bbb8aefae9750b9a31d7f8756c81116ae4fe648248152508160800151601281518110612491577f4e487b7100000000000000000000000000000000000000000000000000000000600052603260045260246000fd5b602002602001018190525060405180604001604052807f204ba641fb475124a6f189523b41ac9f751379de56b0bdd4a4e4d34a0937d90f81526020017f1b63a6bd98d9c8a2d5cec052e49533aba0850eca9be1d658d54bb31b5fd9621e815250816080015160138151811061252f577f4e487b7100000000000000000000000000000000000000000000000000000000600052603260045260246000fd5b602002602001018190525060405180604001604052807f1a804ba59de28293dcc6b338bca97417c9ac5565398f71ebcdf2b96e2c92ca7681526020017f233db5ed51f5b69ab4c1236c85c0ad0481fb94599e383219bb24a93b82da7d9a81525081608001516014815181106125cd577f4e487b7100000000000000000000000000000000000000000000000000000000600052603260045260246000fd5b602002602001018190525090565b6125e36133a0565b6125eb6133ba565b83600001518160006003811061262a577f4e487b7100000000000000000000000000000000000000000000000000000000600052603260045260246000fd5b602002018181525050836020015181600160038110612672577f4e487b7100000000000000000000000000000000000000000000000000000000600052603260045260246000fd5b60200201818152505082816002600381106126b6577f4e487b7100000000000000000000000000000000000000000000000000000000600052603260045260246000fd5b602002018181525050600060608360808460076107d05a03fa905080600081146126df576126e1565bfe5b5080612722576040517f08c379a000000000000000000000000000000000000000000000000000000000815260040161271990613ace565b60405180910390fd5b505092915050565b6127326133a0565b61273a6133dc565b836000015181600060048110612779577f4e487b7100000000000000000000000000000000000000000000000000000000600052603260045260246000fd5b6020020181815250508360200151816001600481106127c1577f4e487b7100000000000000000000000000000000000000000000000000000000600052603260045260246000fd5b602002018181525050826000015181600260048110612809577f4e487b7100000000000000000000000000000000000000000000000000000000600052603260045260246000fd5b602002018181525050826020015181600360048110612851577f4e487b7100000000000000000000000000000000000000000000000000000000600052603260045260246000fd5b602002018181525050600060608360c08460066107d05a03fa9050806000811461287a5761287c565bfe5b50806128bd576040517f08c379a00000000000000000000000000000000000000000000000000000000081526004016128b490613b2e565b60405180910390fd5b505092915050565b6128cd6133a0565b60007f30644e72e131a029b85045b68181585d97816a916871ca8d3c208c16d87cfd4790506000836000015114801561290a575060008360200151145b1561292e576040518060400160405280600081526020016000815250915050612965565b6040518060400160405280846000015181526020018285602001516129539190613e14565b8361295e9190613ced565b8152509150505b919050565b600080600467ffffffffffffffff8111156129ae577f4e487b7100000000000000000000000000000000000000000000000000000000600052604160045260246000fd5b6040519080825280602002602001820160405280156129e757816020015b6129d46133a0565b8152602001906001900390816129cc5790505b5090506000600467ffffffffffffffff811115612a2d577f4e487b7100000000000000000000000000000000000000000000000000000000600052604160045260246000fd5b604051908082528060200260200182016040528015612a6657816020015b612a536133fe565b815260200190600190039081612a4b5790505b5090508a82600081518110612aa4577f4e487b7100000000000000000000000000000000000000000000000000000000600052603260045260246000fd5b60200260200101819052508882600181518110612aea577f4e487b7100000000000000000000000000000000000000000000000000000000600052603260045260246000fd5b60200260200101819052508682600281518110612b30577f4e487b7100000000000000000000000000000000000000000000000000000000600052603260045260246000fd5b60200260200101819052508482600381518110612b76577f4e487b7100000000000000000000000000000000000000000000000000000000600052603260045260246000fd5b60200260200101819052508981600081518110612bbc577f4e487b7100000000000000000000000000000000000000000000000000000000600052603260045260246000fd5b60200260200101819052508781600181518110612c02577f4e487b7100000000000000000000000000000000000000000000000000000000600052603260045260246000fd5b60200260200101819052508581600281518110612c48577f4e487b7100000000000000000000000000000000000000000000000000000000600052603260045260246000fd5b60200260200101819052508381600381518110612c8e577f4e487b7100000000000000000000000000000000000000000000000000000000600052603260045260246000fd5b6020026020010181905250612ca38282612cb3565b9250505098975050505050505050565b60008151835114612cf9576040517f08c379a0000000000000000000000000000000000000000000000000000000008152600401612cf090613b0e565b60405180910390fd5b6000835190506000600682612d0e9190613c93565b905060008167ffffffffffffffff811115612d52577f4e487b7100000000000000000000000000000000000000000000000000000000600052604160045260246000fd5b604051908082528060200260200182016040528015612d805781602001602082028036833780820191505090505b50905060005b8381101561326557868181518110612dc7577f4e487b7100000000000000000000000000000000000000000000000000000000600052603260045260246000fd5b602002602001015160000151826000600684612de39190613c93565b612ded9190613c3d565b81518110612e24577f4e487b7100000000000000000000000000000000000000000000000000000000600052603260045260246000fd5b602002602001018181525050868181518110612e69577f4e487b7100000000000000000000000000000000000000000000000000000000600052603260045260246000fd5b602002602001015160200151826001600684612e859190613c93565b612e8f9190613c3d565b81518110612ec6577f4e487b7100000000000000000000000000000000000000000000000000000000600052603260045260246000fd5b602002602001018181525050858181518110612f0b577f4e487b7100000000000000000000000000000000000000000000000000000000600052603260045260246000fd5b602002602001015160000151600060028110612f50577f4e487b7100000000000000000000000000000000000000000000000000000000600052603260045260246000fd5b6020020151826002600684612f659190613c93565b612f6f9190613c3d565b81518110612fa6577f4e487b7100000000000000000000000000000000000000000000000000000000600052603260045260246000fd5b602002602001018181525050858181518110612feb577f4e487b7100000000000000000000000000000000000000000000000000000000600052603260045260246000fd5b602002602001015160000151600160028110613030577f4e487b7100000000000000000000000000000000000000000000000000000000600052603260045260246000fd5b60200201518260036006846130459190613c93565b61304f9190613c3d565b81518110613086577f4e487b7100000000000000000000000000000000000000000000000000000000600052603260045260246000fd5b6020026020010181815250508581815181106130cb577f4e487b7100000000000000000000000000000000000000000000000000000000600052603260045260246000fd5b602002602001015160200151600060028110613110577f4e487b7100000000000000000000000000000000000000000000000000000000600052603260045260246000fd5b60200201518260046006846131259190613c93565b61312f9190613c3d565b81518110613166577f4e487b7100000000000000000000000000000000000000000000000000000000600052603260045260246000fd5b6020026020010181815250508581815181106131ab577f4e487b7100000000000000000000000000000000000000000000000000000000600052603260045260246000fd5b6020026020010151602001516001600281106131f0577f4e487b7100000000000000000000000000000000000000000000000000000000600052603260045260246000fd5b60200201518260056006846132059190613c93565b61320f9190613c3d565b81518110613246577f4e487b7100000000000000000000000000000000000000000000000000000000600052603260045260246000fd5b602002602001018181525050808061325d90613dcb565b915050612d86565b5061326e613424565b6000602082602086026020860160086107d05a03fa9050806000811461329357613295565bfe5b50806132d6576040517f08c379a00000000000000000000000000000000000000000000000000000000081526004016132cd90613b4e565b60405180910390fd5b600082600060018110613312577f4e487b7100000000000000000000000000000000000000000000000000000000600052603260045260246000fd5b602002015114159550505050505092915050565b60405180606001604052806133396133a0565b81526020016133466133fe565b81526020016133536133a0565b81525090565b6040518060a0016040528061336c6133a0565b81526020016133796133fe565b81526020016133866133fe565b81526020016133936133fe565b8152602001606081525090565b604051806040016040528060008152602001600081525090565b6040518060600160405280600390602082028036833780820191505090505090565b6040518060800160405280600490602082028036833780820191505090505090565b6040518060400160405280613411613446565b815260200161341e613446565b81525090565b6040518060200160405280600190602082028036833780820191505090505090565b6040518060400160405280600290602082028036833780820191505090505090565b600061347b61347684613bba565b613b89565b9050808285604086028201111561349157600080fd5b60005b858110156134c157816134a788826135df565b845260208401935060408301925050600181019050613494565b5050509392505050565b60006134de6134d984613be0565b613b89565b905080828560208602820111156134f457600080fd5b60005b85811015613524578161350a8882613645565b8452602084019350602083019250506001810190506134f7565b5050509392505050565b600061354161353c84613c06565b613b89565b9050808285602086028201111561355757600080fd5b60005b85811015613587578161356d8882613645565b84526020840193506020830192505060018101905061355a565b5050509392505050565b600082601f8301126135a257600080fd5b60026135af848285613468565b91505092915050565b600082601f8301126135c957600080fd5b60146135d68482856134cb565b91505092915050565b600082601f8301126135f057600080fd5b60026135fd84828561352e565b91505092915050565b60008135905061361581613ed2565b92915050565b60008135905061362a81613ee9565b92915050565b60008135905061363f81613f00565b92915050565b60008135905061365481613f17565b92915050565b600080600080610380858703121561367157600080fd5b600061367f878288016135df565b945050604061369087828801613591565b93505060c06136a1878288016135df565b9250506101006136b3878288016135b8565b91505092959194509250565b6000602082840312156136d157600080fd5b60006136df84828501613630565b91505092915050565b6000602082840312156136fa57600080fd5b600061370884828501613645565b91505092915050565b600080600080600060a0868803121561372957600080fd5b600061373788828901613645565b955050602061374888828901613630565b945050604061375988828901613606565b935050606061376a88828901613630565b925050608061377b8882890161361b565b9150509295509295909350565b6000806040838503121561379b57600080fd5b60006137a985828601613645565b92505060206137ba85828601613645565b9150509250929050565b60008060008060008060c087890312156137dd57600080fd5b60006137eb89828a01613645565b96505060206137fc89828a01613645565b955050604061380d89828a01613630565b945050606061381e89828a01613606565b935050608061382f89828a01613630565b92505060a061384089828a0161361b565b9150509295509295509295565b61385681613d21565b82525050565b61386581613d33565b82525050565b61387481613d3f565b82525050565b61388381613d6b565b82525050565b61389281613d97565b82525050565b60006138a5601283613c2c565b91507f76657269666965722d6261642d696e70757400000000000000000000000000006000830152602082019050919050565b60006138e5601283613c2c565b91507f70616972696e672d6d756c2d6661696c656400000000000000000000000000006000830152602082019050919050565b6000613925601f83613c2c565b91507f76657269666965722d6774652d736e61726b2d7363616c61722d6669656c64006000830152602082019050919050565b6000613965601683613c2c565b91507f70616972696e672d6c656e677468732d6661696c6564000000000000000000006000830152602082019050919050565b60006139a5601283613c2c565b91507f70616972696e672d6164642d6661696c656400000000000000000000000000006000830152602082019050919050565b60006139e5601583613c2c565b91507f70616972696e672d6f70636f64652d6661696c656400000000000000000000006000830152602082019050919050565b613a2181613dc1565b82525050565b6000602082019050613a3c600083018461384d565b92915050565b6000602082019050613a57600083018461385c565b92915050565b6000602082019050613a72600083018461386b565b92915050565b6000602082019050613a8d600083018461387a565b92915050565b6000602082019050613aa86000830184613889565b92915050565b60006020820190508181036000830152613ac781613898565b9050919050565b60006020820190508181036000830152613ae7816138d8565b9050919050565b60006020820190508181036000830152613b0781613918565b9050919050565b60006020820190508181036000830152613b2781613958565b9050919050565b60006020820190508181036000830152613b4781613998565b9050919050565b60006020820190508181036000830152613b67816139d8565b9050919050565b6000602082019050613b836000830184613a18565b92915050565b6000604051905081810181811067ffffffffffffffff82111715613bb057613baf613ea3565b5b8060405250919050565b600067ffffffffffffffff821115613bd557613bd4613ea3565b5b602082029050919050565b600067ffffffffffffffff821115613bfb57613bfa613ea3565b5b602082029050919050565b600067ffffffffffffffff821115613c2157613c20613ea3565b5b602082029050919050565b600082825260208201905092915050565b6000613c4882613dc1565b9150613c5383613dc1565b9250827fffffffffffffffffffffffffffffffffffffffffffffffffffffffffffffffff03821115613c8857613c87613e45565b5b828201905092915050565b6000613c9e82613dc1565b9150613ca983613dc1565b9250817fffffffffffffffffffffffffffffffffffffffffffffffffffffffffffffffff0483118215151615613ce257613ce1613e45565b5b828202905092915050565b6000613cf882613dc1565b9150613d0383613dc1565b925082821015613d1657613d15613e45565b5b828203905092915050565b6000613d2c82613da1565b9050919050565b60008115159050919050565b60007fffffffffffffffffffffffffffffffffffffffffffffffff000000000000000082169050919050565b60007fffffffffffffffffffffffffffffffffffffffffffffffffffffffff0000000082169050919050565b6000819050919050565b600073ffffffffffffffffffffffffffffffffffffffff82169050919050565b6000819050919050565b6000613dd682613dc1565b91507fffffffffffffffffffffffffffffffffffffffffffffffffffffffffffffffff821415613e0957613e08613e45565b5b600182019050919050565b6000613e1f82613dc1565b9150613e2a83613dc1565b925082613e3a57613e39613e74565b5b828206905092915050565b7f4e487b7100000000000000000000000000000000000000000000000000000000600052601160045260246000fd5b7f4e487b7100000000000000000000000000000000000000000000000000000000600052601260045260246000fd5b7f4e487b7100000000000000000000000000000000000000000000000000000000600052604160045260246000fd5b613edb81613d3f565b8114613ee657600080fd5b50565b613ef281613d6b565b8114613efd57600080fd5b50565b613f0981613d97565b8114613f1457600080fd5b50565b613f2081613dc1565b8114613f2b57600080fd5b5056fea264697066735822122040f3639bab7d53d04e7b90f497cc42b3877f6b3cbaa94aad6b48055df875941864736f6c63430008000033",
  "linkReferences": {},
  "deployedLinkReferences": {}
}